:040000000200543274
:03000B000200FDF3
:200010000000E2FBEAF2802C0000E0FBEAF08024E6B50202EBF62200E2B50202EBF22200D6
:20003000E0B50202EBF02230F6E0A88220F5D3EAC6F582228B822230F6E6A88220F5D980E6
:01005000CFE0
:2000AD00E4F508F509F50AF50BF50CF50DF50EF50FF510F511F512F513F514F515F516F51E
:0D00CD0017D200C201C202C203C204C20564
:0300DD00020051CD
:030051000202CDDB
:2000E000D2842084FDC285859F822275A15575A1AA74F855B94406F5B975A10022C0E0C0C5
:2001000007C006C0D075D000C28D758CFF758A38AE08AF0974012EF508E43FF509AE0AAF21
:200120000B74012EF50AE43FF50BD0D0D006D007D0E0325389FC438901758CFF758A38D212
:20014000A9D28CD2AF22C3E50894C4E5099409500443B00122C3E5089488E5099413500443
:2001600053B0FE22E4F508F50922AF82BF2E00500490000022EF24D2FF7E007D007C00C01C
:2001800007C006C005C004900BB8E4F5F01209DEAC82AD83AEF0FFE58124FCF5817475C054
:2001A000E0E4C0E0C0E0C0E08C828D838EF0EF120918AC82AD83E58124FCF581742C2CF5C2
:2001C0008274013DF58322AF828F0675F00AEE84F50C750D0075F00AEF84AFF08F0E750F85
:2001E00000E50C25E0F50CE50D33F50DE50E25E0F50EE50F33F50FE4F510F511F512F513BD
:20020000C202C203E4F50AF50BD2012220010122E51045117027E51245137021E50E450F30
:2002200060087510017511008013E50C450D60087512017513008005C201D20022C3E50A0E
:2002400094DCE50B9405500122E4F50AF50B04B5100614B5110280028035E50E450F601FA7
:2002600020020743B010D202802453B0EFC202AE0EAF0FEE24FFF50EEF34FFF50F800F538E
:20028000B0EFC202E4F510F511751201F513227401B5120614B51302800122E50C450D60F4
:2002A0001D20030643B020D2032253B0DFC203AE0CAF0DEE24FFF50CEF34FFF50D2253B076
:2002C000DFC203E4F512F513C201D200221200EB12013375A15575A1AA53B1FE75A10053F7
:2002E00096FE4397015389FB53C6DF5396CF43973053B0CF439210439310758200120364F1
:20030000758202120371E590C45401B401009208E433FE600B200408B20520050353B0FEF5
:20032000EE24FF920430050312014630003120012E1200E012016A8582158583167432C0C6
:20034000E0E4C0E01208CCAE8215811581EEF517249B50037517648517821201C7C200122F
:04036000020C80A269
:20036400AF8274FE559A4FF59A439A0822E582FF7009C281C2805393FD8028BF0109C28107
:20038400D2805393EF801CBF0209D281C2805393DF8010BF0309D281D2805397FB80047594
:2003A40082FF2275820122C019858119AF82439A04E51924FDF8B60126EF7008C281C28092
:2003C400C283804EBF0208D281C280C2838043BF0308D281D280C28380387582FF8036E5A3
:2003E4001924FDF8B60326EF7008C281C280C2838020BF0108C281D280C2838015BF020817
:18040400D281C280C283800A7582FF80087582FF8003758201D0192282
:0300DA0075180096
:20041C00AF82C29474804FF58212089C1208A3D29422C019858119AF82C294747F5FF5823C
:20043C0012089CE51924FDF8868212089CD294D01922758200120870E4C0E075826B120427
:20045C002E158175827512041C8582182285188222C019858119C082C083C0F0E5812410D5
:20047C00F581C2947582BB12089CE5192406F97C00BC0E005018EC29F8C004C001C00012F9
:20049C0008A3E582D000D001D004F60C80E3D29487048C037C00E904F886027F00EA42043C
:2004BC00EF4203A8190886820886830886F0EC1208FDA3EB1208FDE51924FBF886050886B6
:2004DC0006088607740229F88604E5192404F808A604187600740329F886027C00E5192428
:2004FC0004F808E642048D828E838FF0EA1208FDA3EC1208FDE51924F8F886050886060831
:20051C008607740429F88604E5192404F808A604187600740529F886027C00E5192404F8F5
:20053C0008E642048D828E838FF0EA1208FDA3EC1208FDE51924F5F8860508860608860762
:20055C00740829F88604E5192404F808A604187600740929F886027C00E5192404F808E64C
:20057C0042048D828E838FF0EA1208FDA3EC1208FDE51924F2F88605088606088607740A95
:20059C0029F88604E5192404F808A604187600740B29F886027C00E5192404F808E6420440
:2005BC008D828E838FF0EA1208FDA3EC1208FDE51924EFF88605088606088607740C29F87B
:2005DC008604E5192404F808A604187600740D29F987027C00E5192404F808E642048D820E
:1605FC008E838FF0EA1208FDA3EC1208FD758201851981D0192290
:2006120075A15575A1AA43C62075A10075C90075C8005396FB4397045396EF5397EFC2C7E7
:20063200D2C575C264D2C4D2C122AF8210C10280FB8FC122AD82AE83AFF08D828E838FF09C
:20065200120985FC60180DBD00010E8C82C007C006C00512063CD005D006D00780DC22AE39
:2006720082AF83C3EE9410EF9427402CC007C0067410C0E07427C0E08E828F831208CCACA9
:20069200821581158175F00AEC84ACF074302CF58212063CD006D007C3EE94E8EF940340E4
:2006B2002CC007C00674E8C0E07403C0E08E828F831208CCAC821581158175F00AEC84AC6F
:2006D200F074302CF58212063CD006D007C3EE9464EF94004032C007C0067464C0E0E4C089
:2006F200E08E828F831208CC15811581740AC0E0E4C0E0120A4EAC821581158174302CF5A9
:200712008212063CD006D007C3EE940AEF94004032C007C006740AC0E0E4C0E08E828F83AF
:200732001208CC15811581740AC0E0E4C0E0120A4EAC821581158174302CF58212063CD0C4
:2007520006D007740AC0E0E4C0E08E828F83120A4EAE821581158174302EF58202063C1281
:20077200064675820D12063C75820A02063CC019E581F519240AF581AE82AF838E048F0505
:20079200ED30E71575822DC007C00612063CD006D007C3E49EFEE49FFFAD190DE5192409B9
:2007B200F8E4F608F6E5192409F8E62DF9E5192409F806B600020806C0058E028F05C0058B
:2007D200C002C001740AC0E0E4C0E08A828D831209A1AB8215811581D001D002D005743095
:2007F2002BF7740AC0E0E4C0E08A828D83120A93AC82AD83158115818C068D078E048F0582
:20081200C3E49C74808DF063F08095F0D0054095E5192409F886060886078E038F041EBECC
:20083200FF011FEB4C6016EE2DF98782C007C006C00512063CD005D006D00780DD75820D34
:1E08520012063C75820A12063C851981D0192212067175820D12063C75820A02063C8F
:20087000AF8275FC00EF700575FA608006BF030375FA6853920F4393B05393BF75FB0B22B5
:2008900043FC5043FA01E5F875F8FF228582F930FBFD2275F9FF30FBFD85F9822275FC801E
:1C08B00075FA8153920F53930F228582F910FC0280FB2210FC0280FB85F98222DB
:2008CC00E58124FEF8E6F918E6F87A10E4FBFCE58225E0F582E58333F583EB33FBEC33FC28
:1108EC00EB98F5F0EC994006FCABF0438201DADF2290
:06008300E478FFF6D8FD51
:200061007900E94400601B7A00900AD4780175A000E493F2A308B8000205A0D9F4DAF27567
:02008100A0FFDE
:1B08FD0020F71130F6138883A88220F509F6A8837583002280FEF280F5F022FA
:200089007800E84400600A790175A000E4F309D8FC7800E84400600C7900900001E4F0A375
:0400A900D8FCD9FAAC
:20091800FBE58124FBF8E6F9087A20E4FCFDFEFFE5822582F582E58333F583E5F033F5F067
:20093800EB33FB4017DAE98042E5822582F582E58333F583E5F033F5F0EB33FBEC33FCED04
:2009580033FDEE33FEEF33FFEC99ED96EE0896EF089618184013EC99FCED96FDEE0896FEE0
:0D097800EF0896FF1818438201DABEEB224B
:0D005400758121120AD0E58260030200517F
:1C09850020F71430F6148883A88220F507E6A88375830022E280F7E49322E02281
:2009A100C2D5E58330E70DD2D5E4C39582F582E49583F583E58124FEF8E630E70918E4C37E
:1D09C10096F6E40896F68601188600120A5830D50BE4C39582F582E49583F58322A1
:2009DE00AAF0FB74FB2581F8E58286F0A9F008A4FCADF0E58389F0A42DFDE435F0FEE5827F
:2009FE0086F0A42DFDE5F03EFEE433FFEA89F0A42EFEE5F03FFFE58386F0A42EFEE5F03F66
:200A1E00FFE5820886F0A42EFEE5F03FFFEB89F0A42FFFE58386F0A42FFFEA1886F0A42FC0
:100A3E00FFE582080886F0A42F8EF08D838C82222B
:200A4E00E58124FEF88601188600E84960367A01E825E0F8E933400EF9E58298E583994019
:200A6E00030A80ECC3E913F9E813F8C3E58298F5F0E583994005F58385F082C3E913F9E848
:050A8E0013F8DAE72275
:200A9300C2D5E58330E70DD2D5E4C39582F582E49583F583E58124FEF8E630E70AB2D518AA
:1D0AB300E4C396F6E40896F918E6F81208D630D50BE4C39582F582E49583F58322B7
:040AD0007582002209
:00000001FF
