:040000000200543274
:03000B000200E20E
:200010000000E2FBEAF2802C0000E0FBEAF08024E6B50202EBF62200E2B50202EBF22200D6
:20003000E0B50202EBF02230F6E0A88220F5D3EAC6F582228B822230F6E6A88220F5D980E6
:01005000CFE0
:1800AD00E4F508F509F50CF50DF50EF50FF510F511F512F513020051E5
:0300510002019613
:2000C500D2842084FDC285859F822275A15575A1AA74F855B94406F5B975A10022C0E0C0E0
:2000E50007C006C0D075D000C28D758CB1758AE0AE08AF0974012EF508E43FF509050DE454
:20010500B50D02050ED0D0D006D007D0E0325389FC438901758CB1758AE0D2A9D28CD2AF44
:200125002275143C75150085088285098312050CAE82AF83C3EE941EEF9400500443B00176
:200145002253B0FE22AF82BF2E00500490000022EF24D2F514751500751600751700900B07
:20016500B8E4F5F012049EAC82AD83AEF0FF751475E4F515F516F5178C828D838EF0EF12AA
:200185000439AC82AD83742C2CF58274013DF583221200D012011375A15575A1AA53B1FEFB
:2001A50075A1005396FE43970143921043931075820012021075820212021D1202B8E59011
:2001C500C45401B401009200E433F50A750B00450B6005120126800353B0FEC37464950D75
:2001E500E4950E50D91200C585821112014A858212858313E4F50DF50E050FB50F020510F2
:0B02050085128285138312040180B370
:20021000AF8274FE559A4FF59A439A0822E582FF7009C281C2805393FD8028BF0109C2815C
:20023000D2805393EF801CBF0209D281C2805393DF8010BF0309D281D2805397FB800475E9
:2002500082FF2275820122AF82439A047401B51425EF7008C281C280C2838048BF0208D2C8
:2002700081C280C283803DBF0308D281D280C28380327582FF227403B51425EF7008C2811C
:20029000C280C283801EBF0108C281D280C2838013BF0208D281C280C28380087582FF22B1
:0802B0007582FF227582012214
:2002B80075A15575A1AA43C62075A10075C90075C8005396FB4397045396EF5397EFC2C745
:2002D800D2C575C264D2C4D2C122AF8210C10280FB8FC122AD82AE83AFF08D828E838FF0FA
:2002F800120559FC60188C820DBD00010EC007C006C0051202E2D005D006D00780DC22AE25
:2003180082AF83C3EE9410EF942740267514107515278E828F83C007C006120410AC8275EA
:20033800F00AEC84ACF074302CF5821202E2D006D007C3EE94E8EF940340267514E87515A1
:20035800038E828F83C007C006120410AC8275F00AEC84ACF074302CF5821202E2D006D021
:2003780007C3EE9464EF940040287514647515008E828F83C007C00612041075140A751561
:200398000012050CAC8274302CF5821202E2D006D007C3EE940AEF9400402875140A7515B3
:2003B800008E828F83C007C00612041075140A75150012050CAC8274302CF5821202E2D0D5
:2003D80006D00775140A7515008E828F8312050CAE8274302EF5820202E21202EC75820D63
:1803F8001202E275820A0202E212031775820D1202E275820A0202E203
:200410007A10E4FBFCE58225E0F582E58333F583EB33FBEC33FCEB9514F5F0EC95154006E8
:09043000FCABF0438201DADD228D
:20043900FB7A20E4FCFDFEFFE5822582F582E58333F583E5F033F5F0EB33FB4017DAE980FC
:2004590042E5822582F582E58333F583E5F033F5F0EB33FBEC33FCED33FDEE33FEEF33FF2B
:20047900EC9514ED9515EE9516EF95174013EC9514FCED9515FDEE9516FEEF9517FF438295
:0504990001DABEEB22B8
:06008300E478FFF6D8FD51
:200061007900E94400601B7A00900579780175A000E493F2A308B8000205A0D9F4DAF275C7
:02008100A0FFDE
:20049E00AAF0FBE5828514F0A4FCADF0E5838514F0A42DFDE435F0FEE5828515F0A42DFDF7
:2004BE00E5F03EFEE433FFEA8514F0A42EFEE5F03FFFE5838515F0A42EFEE5F03FFFE58265
:2004DE008516F0A42EFEE5F03FFFEB8514F0A42FFFEA8515F0A42FFFE5838516F0A42FFF3F
:0E04FE00E5828517F0A42F8EF08D838C82226C
:20050C00E514451560467A01E51425E0F514E515334012F515E5829514E583951540030A5C
:20052C0080E6C3E51513F515E51413F514C3E5829514F5F0E58395154005F58385F082C319
:0D054C00E51513F515E51413F514DAE12299
:200089007800E84400600A790175A000E4F309D8FC7800E84400600C7900900001E4F0A375
:0400A900D8FCD9FAAC
:0D005400758120120575E5826003020051E0
:1C05590020F71430F6148883A88220F507E6A88375830022E280F7E49322E022B1
:040575007582002269
:00000001FF
