:040000000200543274
:03000B000200DE12
:200010000000E2FBEAF2802C0000E0FBEAF08024E6B50202EBF62200E2B50202EBF22200D6
:20003000E0B50202EBF02230F6E0A88220F5D3EAC6F582228B822230F6E6A88220F5D980E6
:01005000CFE0
:1400AD00E4F508F509F50CF50DF50EF50FF510F511020051F8
:0300510002014663
:2000C100D2842084FDC285859F822275A15575A1AA74F855B94406F5B975A10022C0E0C0E4
:2000E10007C006C0D075D000C28D758CB1758AE0AE08AF0974012EF508E43FF509050DE458
:20010100B50D02050ED0D0D006D007D0E0325389FC438901758CB1758AE0D2A9D28CD2AF48
:200121002275123C7513008508828509831203E2AE82AF83C3EE941EEF9400500443B001AA
:200141002253B0FE221200CC12010F75A15575A1AA53B1FE75A1005396FE4397014392106F
:200161004393107582001201B97582021201C6120261E590C45401B401009200E433F50AA3
:20018100750B00450B6005120122800353B0FEC37464950DE4950E50D91200C1858211E4B4
:1801A100F50DF50E050FB50F020510AE117F008E828F831203AA80BAF9
:2001B900AF8274FE559A4FF59A439A0822E582FF7009C281C2805393FD8028BF0109C281B4
:2001D900D2805393EF801CBF0209D281C2805393DF8010BF0309D281D2805397FB80047541
:2001F90082FF2275820122AF82439A047401B51225EF7008C281C280C2838048BF0208D222
:2002190081C280C283803DBF0308D281D280C28380327582FF227403B51225EF7008C28175
:20023900C280C283801EBF0108C281D280C2838013BF0208D281C280C28380087582FF2208
:080259007582FF22758201226B
:2002610075A15575A1AA43C62075A10075C90075C8005396FB4397045396EF5397EFC2C79C
:20028100D2C575C264D2C4D2C122AF8210C10280FB8FC122AD82AE83AFF08D828E838FF051
:2002A10012042FFC60188C820DBD00010EC007C006C00512028BD005D006D00780DC22AEFE
:2002C10082AF83C3EE9410EF942740267512107513278E828F83C007C0061203B9AC82759E
:2002E100F00AEC84ACF074302CF58212028BD006D007C3EE94E8EF940340267512E8751354
:20030100038E828F83C007C0061203B9AC8275F00AEC84ACF074302CF58212028BD006D027
:2003210007C3EE9464EF940040287512647513008E828F83C007C0061203B975120A751318
:20034100001203E2AC8274302CF58212028BD006D007C3EE940AEF9400402875120A751391
:20036100008E828F83C007C0061203B975120A7513001203E2AC8274302CF58212028BD00B
:2003810006D00775120A7513008E828F831203E2AE8274302EF58202028B12029575820D98
:1803A10012028B75820A02028B1202C075820D12028B75820A02028B0E
:2003B9007A10E4FBFCE58225E0F582E58333F583EB33FBEC33FCEB9512F5F0EC9513400644
:0903D900FCABF0438201DADD22E5
:06008300E478FFF6D8FD51
:200061007900E94400601B7A0090044F780175A000E493F2A308B8000205A0D9F4DAF275F2
:02008100A0FFDE
:2003E200E512451360467A01E51225E0F512E513334012F513E5829512E583951340030A98
:2004020080E6C3E51313F513E51213F512C3E5829512F5F0E58395134005F58385F082C350
:0D042200E51313F513E51213F512DAE122CC
:200089007800E84400600A790175A000E4F309D8FC7800E84400600C7900900001E4F0A375
:0400A900D8FCD9FAAC
:0D00540075812012044BE58260030200510B
:1C042F0020F71430F6148883A88220F507E6A88375830022E280F7E49322E022DC
:04044B007582002294
:00000001FF
