:040000000200543274
:03000B000200FDF3
:200010000000E2FBEAF2802C0000E0FBEAF08024E6B50202EBF62200E2B50202EBF22200D6
:20003000E0B50202EBF02230F6E0A88220F5D3EAC6F582228B822230F6E6A88220F5D980E6
:01005000CFE0
:2000AD00E4F508F509F50AF50BF50CF50DF50EF50FF510F511F512F513F514F515F516F51E
:0D00CD0017D200C201C202C203C204C20564
:0300DD00020051CD
:030051000202BCEC
:2000E000D2842084FDC285859F822275A15575A1AA74F855B94406F5B975A10022C0E0C0C5
:2001000007C006C0D075D000C28D758CFF758A38AE08AF0974012EF508E43FF509AE0AAF21
:200120000B74012EF50AE43FF50BD0D0D006D007D0E0325389FC438901758CFF758A38D212
:20014000A9D28CD2AF22C3E50894C4E5099409500443B00122C3E5089488E5099413500443
:2001600053B0FE22E4F508F50922AF827E007D007C00C007C006C005C004901388E4F5F0A9
:200180001209CDAC82AD83AEF0FFE58124FCF58174FFC0E0E4C0E0C0E0C0E08C828D838EFD
:2001A000F0EF120907AC82AD83E58124FCF5818C828D8322AF828F0675F00AEE84F50C7587
:2001C0000D0075F00AEF84AFF08F0EE4F50FF510F511F512F513C202C203E4F50AF50BD2B4
:2001E000012220010122E51045117027E51245137021E50E450F6008751001751100801388
:20020000E50C450D60087512017513008005C201D20022C3E50A94C4E50B9409500122E4F9
:20022000F50AF50B04B5100614B511028002804EE50E450F601F20020743B020D202803D31
:2002400053B0DFC202AE0EAF0FEE24FFF50EEF34FFF50F802853B0DFC202E4F510F511E522
:200260000C450D60067E017F0080047E007F008E128F13E51245137004C201D2002274010A
:20028000B5120614B51302800122E50C450D601D20030643B010D2032253B0EFC203AE0CBC
:2002A000AF0DEE24FFF50CEF34FFF50D2253B0EFC203E4F512F513C201D200221200EB12BA
:2002C000013375A15575A1AA53B1FE75A1005396FE4397015389FB53C6DF5396CF43973054
:2002E00053B0CF439210439310758200120353758202120360E590C45401B401009208E4D3
:2003000033FE600B200408B20520050353B0FEEE24FF920430050312014630003120012E4D
:200320001200E012016A8582158583167432C0E0E4C0E01208BBAE8215811581EEF51724FB
:130340009C50037517638517821201B4C2001201E280A20E
:20035300AF8274FE559A4FF59A439A0822E582FF7009C281C2805393FD8028BF0109C28118
:20037300D2805393EF801CBF0209D281C2805393DF8010BF0309D281D2805397FB800475A5
:2003930082FF2275820122C019858119AF82439A04E51924FDF8B60126EF7008C281C280A3
:2003B300C283804EBF0208D281C280C2838043BF0308D281D280C28380387582FF8036E5B4
:2003D3001924FDF8B60326EF7008C281C280C2838020BF0108C281D280C2838015BF020828
:1803F300D281C280C283800A7582FF80087582FF8003758201D0192294
:0300DA0075180096
:20040B00AF82C29474804FF58212088B120892D29422C019858119AF82C294747F5FF5826F
:20042B0012088BE51924FDF8868212088BD294D0192275820012085FE4C0E075826B12046B
:20044B001D158175827512040B8582182285188222C019858119C082C083C0F0E581241008
:20046B00F581C2947582BB12088BE5192406F97C00BC0E005018EC29F8C004C001C000121B
:20048B000892E582D000D001D004F60C80E3D29487048C037C00E904F886027F00EA42045E
:2004AB00EF4203A8190886820886830886F0EC1208ECA3EB1208ECE51924FBF886050886E9
:2004CB0006088607740229F88604E5192404F808A604187600740329F886027C00E5192439
:2004EB0004F808E642048D828E838FF0EA1208ECA3EC1208ECE51924F8F886050886060864
:20050B008607740429F88604E5192404F808A604187600740529F886027C00E5192404F806
:20052B0008E642048D828E838FF0EA1208ECA3EC1208ECE51924F5F8860508860608860795
:20054B00740829F88604E5192404F808A604187600740929F886027C00E5192404F808E65D
:20056B0042048D828E838FF0EA1208ECA3EC1208ECE51924F2F88605088606088607740AC8
:20058B0029F88604E5192404F808A604187600740B29F886027C00E5192404F808E6420451
:2005AB008D828E838FF0EA1208ECA3EC1208ECE51924EFF88605088606088607740C29F8AE
:2005CB008604E5192404F808A604187600740D29F987027C00E5192404F808E642048D821F
:1605EB008E838FF0EA1208ECA3EC1208EC758201851981D01922C3
:2006010075A15575A1AA43C62075A10075C90075C8005396FB4397045396EF5397EFC2C7F8
:20062100D2C575C264D2C4D2C122AF8210C10280FB8FC122AD82AE83AFF08D828E838FF0AD
:20064100120974FC60180DBD00010E8C82C007C006C00512062BD005D006D00780DC22AE6C
:2006610082AF83C3EE9410EF9427402CC007C0067410C0E07427C0E08E828F831208BBACCB
:20068100821581158175F00AEC84ACF074302CF58212062BD006D007C3EE94E8EF94034006
:2006A1002CC007C00674E8C0E07403C0E08E828F831208BBAC821581158175F00AEC84AC91
:2006C100F074302CF58212062BD006D007C3EE9464EF94004032C007C0067464C0E0E4C0AB
:2006E100E08E828F831208BB15811581740AC0E0E4C0E0120A3DAC821581158174302CF5DC
:200701008212062BD006D007C3EE940AEF94004032C007C006740AC0E0E4C0E08E828F83D1
:200721001208BB15811581740AC0E0E4C0E0120A3DAC821581158174302CF58212062BD008
:2007410006D007740AC0E0E4C0E08E828F83120A3DAE821581158174302EF58202062B12B4
:20076100063575820D12062B75820A02062BC019E581F519240AF581AE82AF838E048F0549
:20078100ED30E71575822DC007C00612062BD006D007C3E49EFEE49FFFAD190DE5192409DB
:2007A100F8E4F608F6E5192409F8E62DF9E5192409F806B600020806C0058E028F05C0059C
:2007C100C002C001740AC0E0E4C0E08A828D83120990AB8215811581D001D002D0057430B7
:2007E1002BF7740AC0E0E4C0E08A828D83120A82AC82AD83158115818C068D078E048F05A4
:20080100C3E49C74808DF063F08095F0D0054095E5192409F886060886078E038F041EBEDD
:20082100FF011FEB4C6016EE2DF98782C007C006C00512062BD005D006D00780DD75820D56
:1E08410012062B75820A12062B851981D0192212066075820D12062B75820A02062BF5
:20085F00AF8275FC00EF700575FA608006BF030375FA6853920F4393B05393BF75FB0B22C6
:20087F0043FC5043FA01E5F875F8FF228582F930FBFD2275F9FF30FBFD85F9822275FC802F
:1C089F0075FA8153920F53930F228582F910FC0280FB2210FC0280FB85F98222EC
:2008BB00E58124FEF8E6F918E6F87A10E4FBFCE58225E0F582E58333F583EB33FBEC33FC39
:1108DB00EB98F5F0EC994006FCABF0438201DADF22A1
:06008300E478FFF6D8FD51
:200061007900E94400601B7A00900AC3780175A000E493F2A308B8000205A0D9F4DAF27578
:02008100A0FFDE
:1B08EC0020F71130F6138883A88220F509F6A8837583002280FEF280F5F0220B
:200089007800E84400600A790175A000E4F309D8FC7800E84400600C7900900001E4F0A375
:0400A900D8FCD9FAAC
:20090700FBE58124FBF8E6F9087A20E4FCFDFEFFE5822582F582E58333F583E5F033F5F078
:20092700EB33FB4017DAE98042E5822582F582E58333F583E5F033F5F0EB33FBEC33FCED15
:2009470033FDEE33FEEF33FFEC99ED96EE0896EF089618184013EC99FCED96FDEE0896FEF1
:0D096700EF0896FF1818438201DABEEB225C
:0D005400758121120ABFE582600302005190
:1C09740020F71430F6148883A88220F507E6A88375830022E280F7E49322E02292
:20099000C2D5E58330E70DD2D5E4C39582F582E49583F583E58124FEF8E630E70918E4C38F
:1D09B00096F6E40896F68601188600120A4730D50BE4C39582F582E49583F58322C3
:2009CD00AAF0FB74FB2581F8E58286F0A9F008A4FCADF0E58389F0A42DFDE435F0FEE58290
:2009ED0086F0A42DFDE5F03EFEE433FFEA89F0A42EFEE5F03FFFE58386F0A42EFEE5F03F77
:200A0D00FFE5820886F0A42EFEE5F03FFFEB89F0A42FFFE58386F0A42FFFEA1886F0A42FD1
:100A2D00FFE582080886F0A42F8EF08D838C82223C
:200A3D00E58124FEF88601188600E84960367A01E825E0F8E933400EF9E58298E58399402A
:200A5D00030A80ECC3E913F9E813F8C3E58298F5F0E583994005F58385F082C3E913F9E859
:050A7D0013F8DAE72286
:200A8200C2D5E58330E70DD2D5E4C39582F582E49583F583E58124FEF8E630E70AB2D518BB
:1D0AA200E4C396F6E40896F918E6F81208C530D50BE4C39582F582E49583F58322D9
:040ABF00758200221A
:00000001FF
