:040000000200543274
:03000B000200DA16
:200010000000E2FBEAF2802C0000E0FBEAF08024E6B50202EBF62200E2B50202EBF22200D6
:20003000E0B50202EBF02230F6E0A88220F5D3EAC6F582228B822230F6E6A88220F5D980E6
:01005000CFE0
:1800AD00E4F510F511F512F513F514F515F518F519C200C20102005137
:0300510002015554
:2000C50075A15575A1AA43B98074F855B94406F5B975A10022C0E0C0D075D008C28D758CFD
:2000E500B1758AE0AE10AF1174012EF510E43FF511D0D0D0E03253C97F53C9EF5389FC43D9
:200105008901758CB1758AE0C28DD2A9D28CD2AF22759A047580005392FD5393FD5392EF53
:200125005393EF22AE82AF83EEC39518FCEF9519FDC3EC940FED9400500443B00122C3EC81
:20014500941EED9400500453B0FE228E188F19221200C51200FB1201165396FE439701535E
:20016500B0FEC2AF851016851117D2AF30870D20000FD2008516188517198005C20053B00B
:0F018500FE3000DE85168285178312012980D394
:06008300E478FFF6D8FD51
:200061007900E94400601B7A00900198780175A000E493F2A308B8000205A0D9F4DAF275AC
:02008100A0FFDE
:200089007800E84400600A790175A000E4F309D8FC7800E84400600C7900900001E4F0A375
:0400A900D8FCD9FAAC
:0D005400758120120194E5826003020051C5
:04019400758200224E
:00000001FF
