:040000000200543274
:03000B0002068169
:200010000000E2FBEAF2802C0000E0FBEAF08024E6B50202EBF62200E2B50202EBF22200D6
:20003000E0B50202EBF02230F6E0A88220F5D3EAC6F582228B822230F6E6A88220F5D980E6
:01005000CFE0
:1500AD00E4F508F509F50AF50BF50CF50DF50EF50FF510F5114B
:0300C500020051E5
:0300510002075F44
:2000C8000000224390014390021200C85390FE1200C85390FD225390FE4390021200C843E3
:2000E80090010200C8AF827E00BE08005026EF30E70543900180035390FE439002C007C013
:20010800061200C85390FD1200C8D006D007EF2FFF0E80D54390014390021200C8E59030E8
:20012800E0047F0180027F008F825390FD22AF82C0071200CB7582781200ED7582001200F3
:20014800EDD0078F821200ED0200DEAF82C0071200CB7582781200ED7582401200EDD00793
:200168008F821200ED0200DEC013858113AF8274202FFFE51324FDF8860674B02EF582C082
:2001880007120136D007740F5FF582C007120136D007EFC4540FFF74104FF582120136D078
:2001A8001322C013858113C082C083C0F01200CB7582781200ED7582401200ED7C00E513EC
:2001C80024FDF8C3EC965022A81308EC26FAE40836FB0886078A828B838FF0121073F58221
:2001E800C0041200EDD0040C80D41200DE851381D013227F00BF0400504B8F0674B02EF539
:2002080082C0071201367582001201367582121201361200CB7582781200ED75824012001E
:20022800EDD0077E00BE40005011758200C007C0061200EDD006D0070E80EAC0071200DEB6
:20024800D0070F80B0227582AE1201367582D51201367582801201367582A81201367582BC
:200268001F1201367582D312013675820012013675824012013675828D1201367582141251
:2002880001367582201201367582021201367582A11201367582C81201367582DA1201367A
:2002A8007582121201367582811201367582CF1201367582D91201367582221201367582A2
:2002C800DB1201367582001201367582A41201367582A61201367582AF1201360201FBAF4C
:2002E80082C0071200CB7582781200ED7582401200EDD007BF30004043EF24C6403E8F06F7
:20030800EE24D075F005A42427FD741235F0FE7C00BC0500501EEC2DF582E43EF583E493A8
:20032800F582C006C005C0041200EDD004D005D0060C80DD7582001200ED803ABF2D207ECE
:2003480000BE05005011EE90126393F582C0061200EDD0060E80EA7582001200ED8017BF15
:200368002E14901268E493F5821200ED901269E493F5821200ED0200DEAE82AF83EE4F7055
:2003880004758206227D00EE4F60210D8E828F83C005740AC0E0E4C0E0120F98AB82AC834C
:2003A80015811581D0058B068C0780DBED75F006A4F58222C013E581F5132434F581AE82E1
:2003C800AF837D00EE4F700CE5132428F97C0177300204798E048F02E513242EFBE5132449
:2003E80034F87600EC4A6062C005E5132434F8E62BF9E5132434F8068C058A07C007C00548
:20040800C003C001740AC0E0E4C0E08D828F8312113CAA8215811581D001D003D005D00786
:2004280074302AF7C005C003740AC0E0E4C0E08D828F83120F98AE82AF8315811581D0038A
:20044800D0058E048F02D005809AE5132428FF8B067B00E5132434F88602EA6012C005EB82
:200468002FF90B1AEA2EF88605A705D00580EB8B04E5132428FFE5132404FEFB7A00C3EA8E
:200488009C5059EA2FF9E724D075F005A4A813082427F6741235F008F6E5132403F8A605A5
:2004A8007D00BD05005020E5132403F8E62EF9E5132403F806A81308ED26F582E40836F5E0
:2004C80083E493F70D80DBE5132403F8E604FDE5132403F8E62BF876000A80A2C006C00570
:2004E8001200CB7582781200ED7582401200EDD005D0068E077E00C3EE9D5017EE2FF98763
:2005080082C007C006C0051200EDD005D006D0070E80E41200DE851381D01322C013E581C5
:20052800F5132406F5811203BCA913097700E904F87600740229F87600740329F876007414
:200548000429F87600740529F87600C0011200CB7582781200ED7582401200EDD0017F0056
:20056800BF06005013EF29F88682C007C0011200EDD001D0070F80E81200DE1200CB7582C9
:20058800781200ED7582401200ED7F00BF05005011EF90125993F582C0071200EDD0070F62
:2005A80080EA7582001200ED1200DE1200CB7582781200ED7582401200ED7F00BF050050CF
:2005C80011EF90125E93F582C0071200EDD0070F80EA7582001200ED1200DE851381D01311
:2005E800221206DCAE82E511701E8E05FFC005C00790001E120FE4AD82AF83158115818D3E
:200608000F8F107511018039AD0FAF10C007C006C005741EC0E0E4C0E08D828F83120F9887
:20062800AB82AC8315811581D005D006D007EDC39BFDEF9CFF7C00EE2DFDEC3FFF8D0F8FED
:2006480010850F82851083741EC0E0E4C0E0120F98AE82158115817F00BF640050178F05EC
:20066800ED049011C293FCC3EE9C400674F62DF582220F80E475825A22C0E0C007C006C0F9
:20068800D075D000C28D758CB1758AE0AE0AAF0B74012EF50AE43FF50BAE08AF0974012E15
:2006A800F508E43FF509D0D0D006D007D0E0325389FC438901758CB1758AE0D2A9D28CD204
:2006C800AF2275A15575A1AA74F855B94406F5B975A10022D2842084FDD2842084FDC28537
:2006E800859F8222AF827E007D007C00C007C006C005C004901388E4F5F012108FAC82ADEC
:2007080083AEF0FFE58124FCF58174FFC0E0E4C0E0C0E0C0E08C828D838EF0EF121006AC7F
:2007280082AD83E58124FCF5818C828D83227432C0E0E4C0E085088285098312113CAE824A
:20074800AF8315811581C3EE9419EF9400500443B0202253B0DF22C01385811305810581CD
:2007680075A15575A1AA53B1FE75A1001206CA1206B7120CDE758202120A30758201120A28
:200788003DA81308E4F608F6A813088606088607C3EE94E8EF94035015A8130886060886A0
:2007A80007A8130874012EF6E43F08F680DA5392EF5393EF4392035393FC43900143900247
:2007C8005396DF439720C3E508940FE509940040F512024E120736C37464950AE4950B5086
:2007E800F3E4F50AF50B1205E9E582FF3395E0FEC007C0067402C0E0E4C0E08F828E8312B4
:200808001181AC8215811581D006D007C0047402C0E0E4C0E08F828E831210FFAE82AF8334
:2008280015811581D004EE4F60027405FFEC30E72690126A75F080C007C004120D12D004EF
:200848008C06C3E49EFE7D008E828D83C004120D3DD004D00780138C067D008E828D83C0D1
:2008680007C004120D3DD004D00790126C75F080C007C004120D12D004D0078F057E008DA5
:20088800828E83C007C004120F2DD004D0077E00BE040050638E0574B02DF582C007C0065E
:2008A800C0041201367582001201367582121201361200CB7582781200ED7582401200ED10
:2008C800D004D006D0077D00BD40005019758200C007C006C005C0041200EDD004D005D027
:2008E80006D0070D80E2C007C006C0041200DED004D006D0070E8098EC30E7088C06C3E478
:200908009EFE80048C058D067D008E828D83C007C004120381AE82D004D007EC30E7047D6E
:200928000680027D008F037F008B828F83C007C006C005C004C003120381A81308A682D050
:2009480003D004D005D006D007EE2DFA0A0AA81308E62AFAC0067E007440C39AF582E49EF2
:20096800F583C007C005C004C0037402C0E0E4C0E0121181AA8215811581D003D004D005D2
:20098800D007ECD00630E730C007C006C005C004C003C0027401C0E08A8212017015817525
:2009A800822D1202E7D002D003D004D005D006D007ED2AFAC3E49CFCC007C006C004C00326
:2009C800C0027401C0E08A821201701581D002D003D004EC3395E0FD8C828D83C003C00266
:2009E8001203BCD002D003D006EE2AFEC006C0037401C0E08E82120170158175822E12028D
:200A0800E7D003D0060E0EC0037401C0E08E821201701581D003D0078B828F831203BC0285
:080A280007DC851381D01322C5
:2011C200D0CFCECDCCCBCAC9C8C7C5C4C3C2C1BFBEBDBCBAB9B8B6B5B4B2B1B0AEADACAA47
:2011E200A9A7A6A5A3A2A09F9D9C9B999896959392908F8E8C8B898886858382817F7E7C9A
:201202007B7A787775747371706F6D6C6B69686766646362615F5E5D5C5B595857565554F8
:201222005351504F4E3E5149453E00427F4000625149494622494949361814127F102F49BC
:201242004949313E4949493201710905033649494936264949493E7C041804781F204020C2
:0C1262001F080808080840002D002E009E
:200A3000AF8274FE559A4FF59A439A0822E582FF7009C281C2805393FD8028BF0109C28134
:200A5000D2805393EF801CBF0209D281C2805393DF8010BF0309D281D2805397FB800475C1
:200A700082FF2275820122C013858113AF82439A04E51324FDF8B60126EF7008C281C280D1
:200A9000C283804EBF0208D281C280C2838043BF0308D281D280C28380387582FF8036E5D0
:200AB0001324FDF8B60326EF7008C281C280C2838020BF0108C281D280C2838015BF02084A
:180AD000D281C280C283800A7582FF80087582FF8003758201D01322B6
:0300C200751200B4
:200AE800AF82C29474804FF582120F68120F6FD29422C013858113AF82C294747F5FF582D0
:200B0800120F68E51324FDF88682120F68D294D01322758200120F3CE4C0E075826B120AE1
:200B2800FA1581758275120AE88582122285128222C013858113C082C083C0F0E58124107C
:200B4800F581C2947582BB120F68E5132406F97C00BC0E005018EC29F8C004C001C0001259
:200B68000F6FE582D000D001D004F60C80E3D29487048C037C00E904F886027F00EA420496
:200B8800EF4203A8130886820886830886F0EC120FC9A3EB120FC9E51324FBF88605088649
:200BA80006088607740229F88604E5132404F808A604187600740329F886027C00E5132461
:200BC80004F808E642048D828E838FF0EA120FC9A3EC120FC9E51324F8F8860508860608BE
:200BE8008607740429F88604E5132404F808A604187600740529F886027C00E5132404F82F
:200C080008E642048D828E838FF0EA120FC9A3EC120FC9E51324F5F88605088606088607EF
:200C2800740829F88604E5132404F808A604187600740929F886027C00E5132404F808E685
:200C480042048D828E838FF0EA120FC9A3EC120FC9E51324F2F88605088606088607740A22
:200C680029F88604E5132404F808A604187600740B29F886027C00E5132404F808E6420479
:200C88008D828E838FF0EA120FC9A3EC120FC9E51324EFF88605088606088607740C29F808
:200CA8008604E5132404F808A604187600740D29F987027C00E5132404F808E642048D8247
:160CC8008E838FF0EA120FC9A3EC120FC9758201851381D0132223
:200CDE0075A15575A1AA43C62075A10075C90075C8005396FB4397045396EF5397EFC2C715
:200CFE00D2C575C264D2C4D2C122AF8210C10280FB8FC122AD82AE83AFF08D828E838FF0CA
:200D1E00121073FC60180DBD00010E8C82C007C006C005120D08D005D006D00780DC22AE9E
:200D3E0082AF83C3EE9410EF9427402CC007C0067410C0E07427C0E08E828F83120F98AC03
:200D5E00821581158175F00AEC84ACF074302CF582120D08D006D007C3EE94E8EF9403403E
:200D7E002CC007C00674E8C0E07403C0E08E828F83120F98AC821581158175F00AEC84ACC9
:200D9E00F074302CF582120D08D006D007C3EE9464EF94004032C007C0067464C0E0E4C0E3
:200DBE00E08E828F83120F9815811581740AC0E0E4C0E012113CAC821581158174302CF50E
:200DDE0082120D08D006D007C3EE940AEF94004032C007C006740AC0E0E4C0E08E828F830A
:200DFE00120F9815811581740AC0E0E4C0E012113CAC821581158174302CF582120D08D057
:200E1E0006D007740AC0E0E4C0E08E828F8312113CAE821581158174302EF582020D0812E6
:200E3E000D1275820D120D0875820A020D08C013E581F513240AF581AE82AF838E048F05C5
:200E5E00ED30E71575822DC007C006120D08D006D007C3E49EFEE49FFFAD130DE51324091F
:200E7E00F8E4F608F6E5132409F8E62DF9E5132409F806B600020806C0058E028F05C005C4
:200E9E00C002C001740AC0E0E4C0E08A828D831210FFAB8215811581D001D002D00574305D
:200EBE002BF7740AC0E0E4C0E08A828D83121181AC82AD83158115818C068D078E048F05BA
:200EDE00C3E49C74808DF063F08095F0D0054095E5132409F886060886078E038F041EBE00
:200EFE00FF011FEB4C6016EE2DF98782C007C006C005120D08D005D006D00780DD75820D8F
:1E0F1E00120D0875820A120D08851381D01322120D3D75820D120D0875820A020D08A9
:200F3C00AF8275FC00EF700575FA608006BF030375FA6853920F4393B05393BF75FB0B22E2
:200F5C0043FC5043FA01E5F875F8FF228582F930FBFD2275F9FF30FBFD85F9822275FC804B
:1C0F7C0075FA8153920F53930F228582F910FC0280FB2210FC0280FB85F9822208
:200F9800E58124FEF8E6F918E6F87A10E4FBFCE58225E0F582E58333F583EB33FBEC33FC55
:110FB800EB98F5F0EC994006FCABF0438201DADF22BD
:06008300E478FFF6D8FD51
:200061007900E94400601B7A0090126E780175A000E493F2A308B8000205A0D9F4DAF275C5
:02008100A0FFDE
:1B0FC90020F71130F6138883A88220F509F6A8837583002280FEF280F5F02227
:200FE40074FE2581F8E68582F0A4C0E08582F018E6A4F582D0E025F0C58386F0A42583F5E8
:02100400832245
:200089007800E84400600A790175A000E4F309D8FC7800E84400600C7900900001E4F0A375
:0400A900D8FCD9FAAC
:20100600FBE58124FBF8E6F9087A20E4FCFDFEFFE5822582F582E58333F583E5F033F5F072
:20102600EB33FB4017DAE98042E5822582F582E58333F583E5F033F5F0EB33FBEC33FCED0F
:2010460033FDEE33FEEF33FFEC99ED96EE0896EF089618184013EC99FCED96FDEE0896FEEB
:0D106600EF0896FF1818438201DABEEB2256
:0D0054007581131211BEE582600302005198
:1C10730020F71430F6148883A88220F507E6A88375830022E280F7E49322E0228C
:20108F00AAF0FB74FB2581F8E58286F0A9F008A4FCADF0E58389F0A42DFDE435F0FEE582C7
:2010AF0086F0A42DFDE5F03EFEE433FFEA89F0A42EFEE5F03FFFE58386F0A42EFEE5F03FAE
:2010CF00FFE5820886F0A42EFEE5F03FFFEB89F0A42FFFE58386F0A42FFFEA1886F0A42F09
:1010EF00FFE582080886F0A42F8EF08D838C822274
:2010FF00C2D5E58330E70DD2D5E4C39582F582E49583F583E58124FEF8E630E70918E4C319
:1D111F0096F6E40896F6860118860012114630D50BE4C39582F582E49583F5832246
:20113C00E58124FEF88601188600E84960367A01E825E0F8E933400EF9E58298E583994024
:20115C00030A80ECC3E913F9E813F8C3E58298F5F0E583994005F58385F082C3E913F9E853
:05117C0013F8DAE72280
:20118100C2D5E58330E70DD2D5E4C39582F582E49583F583E58124FEF8E630E70AB2D518B5
:1D11A100E4C396F6E40896F918E6F8120FA230D50BE4C39582F582E49583F58322EF
:0411BE007582002214
:00000001FF
