:040000000200543274
:03000B000200D020
:200010000000E2FBEAF2802C0000E0FBEAF08024E6B50202EBF62200E2B50202EBF22200D6
:20003000E0B50202EBF02230F6E0A88220F5D3EAC6F582228B822230F6E6A88220F5D980E6
:01005000CFE0
:0B00AD00E4F508F509F50AF50BF50C69
:0300BB00020051EF
:0300510002014861
:2000BE0075A15575A1AA74F855B94406F5B975A10022C0E0C007C006C0D075D000C28D7587
:2000DE008CFF758A38C3E5089488E50994134007E4F508F509800DAE08AF0974012EF5081E
:2000FE00E43FF509D0D0D006D007D0E0325389FC438901758CFF758A38D2A9D28CD2AF223A
:20011E007488C0E07413C0E0850882850983120772AE82AF8315811581C3EE94C4EF940930
:20013E00500443B0012253B0FE221200BE12010B75A15575A1AA53B1FE75A1005396FE43B9
:07015E00970112011E80FB56
:20016500AF8274FE559A4FF59A439A0822E582FF7009C281C2805393FD8028BF0109C28108
:20018500D2805393EF801CBF0209D281C2805393DF8010BF0309D281D2805397FB80047595
:2001A50082FF2275820122C00E85810EAF82439A04E50E24FDF8B60126EF7008C281C280B4
:2001C500C283804EBF0208D281C280C2838043BF0308D281D280C28380387582FF8036E5A4
:2001E5000E24FDF8B60326EF7008C281C280C2838020BF0108C281D280C2838015BF020823
:18020500D281C280C283800A7582FF80087582FF8003758201D00E228E
:0300B800750D00C3
:20021D00AF82C29474804FF58212069D1206A4D29422C00E85810EAF82C294747F5FF58255
:20023D0012069DE50E24FDF8868212069DD294D00E22758200120671E4C0E075826B120243
:20025D002F158175827512021D85820D22850D8222C00E85810EC082C083C0F0E581241002
:20027D00F581C2947582BB12069DE50E2406F97C00BC0E005018EC29F8C004C001C0001206
:20029D0006A4E582D000D001D004F60C80E3D29487048C037C00E904F886027F00EA42043E
:2002BD00EF4203A80E0886820886830886F0EC1206FEA3EB1206FEE50E24FBF886050886CF
:2002DD0006088607740229F88604E50E2404F808A604187600740329F886027C00E50E243F
:2002FD0004F808E642048D828E838FF0EA1206FEA3EC1206FEE50E24F8F88605088606083F
:20031D008607740429F88604E50E2404F808A604187600740529F886027C00E50E2404F80C
:20033D0008E642048D828E838FF0EA1206FEA3EC1206FEE50E24F5F8860508860608860770
:20035D00740829F88604E50E2404F808A604187600740929F886027C00E50E2404F808E663
:20037D0042048D828E838FF0EA1206FEA3EC1206FEE50E24F2F88605088606088607740AA3
:20039D0029F88604E50E2404F808A604187600740B29F886027C00E50E2404F808E6420457
:2003BD008D828E838FF0EA1206FEA3EC1206FEE50E24EFF88605088606088607740C29F889
:2003DD008604E50E2404F808A604187600740D29F987027C00E50E2404F808E642048D8225
:1603FD008E838FF0EA1206FEA3EC1206FE758201850E81D00E22A9
:2004130075A15575A1AA43C62075A10075C90075C8005396FB4397045396EF5397EFC2C7E8
:20043300D2C575C264D2C4D2C122AF8210C10280FB8FC122AD82AE83AFF08D828E838FF09D
:20045300120719FC60180DBD00010E8C82C007C006C00512043DD005D006D00780DC22AEA9
:2004730082AF83C3EE9410EF9427402CC007C0067410C0E07427C0E08E828F831206CDACAB
:20049300821581158175F00AEC84ACF074302CF58212043DD006D007C3EE94E8EF940340E6
:2004B3002CC007C00674E8C0E07403C0E08E828F831206CDAC821581158175F00AEC84AC71
:2004D300F074302CF58212043DD006D007C3EE9464EF94004032C007C0067464C0E0E4C08B
:2004F300E08E828F831206CD15811581740AC0E0E4C0E0120772AC821581158174302CF58A
:200513008212043DD006D007C3EE940AEF94004032C007C006740AC0E0E4C0E08E828F83B1
:200533001206CD15811581740AC0E0E4C0E0120772AC821581158174302CF58212043DD0A6
:2005530006D007740AC0E0E4C0E08E828F83120772AE821581158174302EF58202043D1262
:20057300044775820D12043D75820A02043DC00EE581F50E240AF581AE82AF838E048F051F
:20059300ED30E71575822DC007C00612043DD006D007C3E49EFEE49FFFAD0E0DE50E2409D1
:2005B300F8E4F608F6E50E2409F8E62DF9E50E2409F806B600020806C0058E028F05C005A2
:2005D300C002C001740AC0E0E4C0E08A828D83120735AB8215811581D001D002D005743004
:2005F3002BF7740AC0E0E4C0E08A828D831207B7AC82AD83158115818C068D078E048F0562
:20061300C3E49C74808DF063F08095F0D0054095E50E2409F886060886078E038F041EBED8
:20063300FF011FEB4C6016EE2DF98782C007C006C00512043DD005D006D00780DD75820D36
:1E06530012043D75820A12043D850E81D00E2212047275820D12043D75820A02043DAB
:20067100AF8275FC00EF700575FA608006BF030375FA6853920F4393B05393BF75FB0B22B6
:2006910043FC5043FA01E5F875F8FF228582F930FBFD2275F9FF30FBFD85F9822275FC801F
:1C06B10075FA8153920F53930F228582F910FC0280FB2210FC0280FB85F98222DC
:2006CD00E58124FEF8E6F918E6F87A10E4FBFCE58225E0F582E58333F583EB33FBEC33FC29
:1106ED00EB98F5F0EC994006FCABF0438201DADF2291
:06008300E478FFF6D8FD51
:200061007900E94400601B7A009007F8780175A000E493F2A308B8000205A0D9F4DAF27546
:02008100A0FFDE
:1B06FE0020F71130F6138883A88220F509F6A8837583002280FEF280F5F022FB
:200089007800E84400600A790175A000E4F309D8FC7800E84400600C7900900001E4F0A375
:0400A900D8FCD9FAAC
:0D00540075810E1207F4E582600302005171
:1C07190020F71430F6148883A88220F507E6A88375830022E280F7E49322E022EF
:20073500C2D5E58330E70DD2D5E4C39582F582E49583F583E58124FEF8E630E70918E4C3EC
:1D07550096F6E40896F6860118860012077C30D50BE4C39582F582E49583F58322EE
:20077200E58124FEF88601188600E84960367A01E825E0F8E933400EF9E58298E5839940F8
:20079200030A80ECC3E913F9E813F8C3E58298F5F0E583994005F58385F082C3E913F9E827
:0507B20013F8DAE72254
:2007B700C2D5E58330E70DD2D5E4C39582F582E49583F583E58124FEF8E630E70AB2D51889
:1D07D700E4C396F6E40896F918E6F81206D730D50BE4C39582F582E49583F5832297
:0407F40075820022E8
:00000001FF
