:040000000200543274
:03000B000200D020
:200010000000E2FBEAF2802C0000E0FBEAF08024E6B50202EBF62200E2B50202EBF22200D6
:20003000E0B50202EBF02230F6E0A88220F5D3EAC6F582228B822230F6E6A88220F5D980E6
:01005000CFE0
:0B00AD00E4F508F509F50AF50BF50C69
:0300BB00020051EF
:0300510002014762
:2000BE0075A15575A1AA74F855B94406F5B975A10022C0E0C007C006C0D075D000C28D7587
:2000DE008CB1758AE0C3E5089432E50994004007E4F508F509800DAE08AF0974012EF5082D
:2000FE00E43FF509D0D0D006D007D0E0325389FC438901758CB1758AE0D2A9D28CD2AF22E0
:20011E007432C0E0E4C0E0850882850983120771AE82AF8315811581C3EE9419EF9400508E
:20013E000443B0212253B0DE221200BE12010B75A15575A1AA53B1FE75A1005396DE439792
:06015E002112011E80FBCE
:20016400AF8274FE559A4FF59A439A0822E582FF7009C281C2805393FD8028BF0109C28109
:20018400D2805393EF801CBF0209D281C2805393DF8010BF0309D281D2805397FB80047596
:2001A40082FF2275820122C00E85810EAF82439A04E50E24FDF8B60126EF7008C281C280B5
:2001C400C283804EBF0208D281C280C2838043BF0308D281D280C28380387582FF8036E5A5
:2001E4000E24FDF8B60326EF7008C281C280C2838020BF0108C281D280C2838015BF020824
:18020400D281C280C283800A7582FF80087582FF8003758201D00E228F
:0300B800750D00C3
:20021C00AF82C29474804FF58212069C1206A3D29422C00E85810EAF82C294747F5FF58258
:20023C0012069CE50E24FDF8868212069CD294D00E22758200120670E4C0E075826B120247
:20025C002E158175827512021C85820D22850D8222C00E85810EC082C083C0F0E581241005
:20027C00F581C2947582BB12069CE50E2406F97C00BC0E005018EC29F8C004C001C0001208
:20029C0006A3E582D000D001D004F60C80E3D29487048C037C00E904F886027F00EA420440
:2002BC00EF4203A80E0886820886830886F0EC1206FDA3EB1206FDE50E24FBF886050886D2
:2002DC0006088607740229F88604E50E2404F808A604187600740329F886027C00E50E2440
:2002FC0004F808E642048D828E838FF0EA1206FDA3EC1206FDE50E24F8F886050886060842
:20031C008607740429F88604E50E2404F808A604187600740529F886027C00E50E2404F80D
:20033C0008E642048D828E838FF0EA1206FDA3EC1206FDE50E24F5F8860508860608860773
:20035C00740829F88604E50E2404F808A604187600740929F886027C00E50E2404F808E664
:20037C0042048D828E838FF0EA1206FDA3EC1206FDE50E24F2F88605088606088607740AA6
:20039C0029F88604E50E2404F808A604187600740B29F886027C00E50E2404F808E6420458
:2003BC008D828E838FF0EA1206FDA3EC1206FDE50E24EFF88605088606088607740C29F88C
:2003DC008604E50E2404F808A604187600740D29F987027C00E50E2404F808E642048D8226
:1603FC008E838FF0EA1206FDA3EC1206FD758201850E81D00E22AC
:2004120075A15575A1AA43C62075A10075C90075C8005396FB4397045396EF5397EFC2C7E9
:20043200D2C575C264D2C4D2C122AF8210C10280FB8FC122AD82AE83AFF08D828E838FF09E
:20045200120718FC60180DBD00010E8C82C007C006C00512043CD005D006D00780DC22AEAC
:2004720082AF83C3EE9410EF9427402CC007C0067410C0E07427C0E08E828F831206CCACAD
:20049200821581158175F00AEC84ACF074302CF58212043CD006D007C3EE94E8EF940340E8
:2004B2002CC007C00674E8C0E07403C0E08E828F831206CCAC821581158175F00AEC84AC73
:2004D200F074302CF58212043CD006D007C3EE9464EF94004032C007C0067464C0E0E4C08D
:2004F200E08E828F831206CC15811581740AC0E0E4C0E0120771AC821581158174302CF58D
:200512008212043CD006D007C3EE940AEF94004032C007C006740AC0E0E4C0E08E828F83B3
:200532001206CC15811581740AC0E0E4C0E0120771AC821581158174302CF58212043CD0AA
:2005520006D007740AC0E0E4C0E08E828F83120771AE821581158174302EF58202043C1265
:20057200044675820D12043C75820A02043CC00EE581F50E240AF581AE82AF838E048F0523
:20059200ED30E71575822DC007C00612043CD006D007C3E49EFEE49FFFAD0E0DE50E2409D3
:2005B200F8E4F608F6E50E2409F8E62DF9E50E2409F806B600020806C0058E028F05C005A3
:2005D200C002C001740AC0E0E4C0E08A828D83120734AB8215811581D001D002D005743006
:2005F2002BF7740AC0E0E4C0E08A828D831207B6AC82AD83158115818C068D078E048F0564
:20061200C3E49C74808DF063F08095F0D0054095E50E2409F886060886078E038F041EBED9
:20063200FF011FEB4C6016EE2DF98782C007C006C00512043CD005D006D00780DD75820D38
:1E06520012043C75820A12043C850E81D00E2212047175820D12043C75820A02043CB1
:20067000AF8275FC00EF700575FA608006BF030375FA6853920F4393B05393BF75FB0B22B7
:2006900043FC5043FA01E5F875F8FF228582F930FBFD2275F9FF30FBFD85F9822275FC8020
:1C06B00075FA8153920F53930F228582F910FC0280FB2210FC0280FB85F98222DD
:2006CC00E58124FEF8E6F918E6F87A10E4FBFCE58225E0F582E58333F583EB33FBEC33FC2A
:1106EC00EB98F5F0EC994006FCABF0438201DADF2292
:06008300E478FFF6D8FD51
:200061007900E94400601B7A009007F7780175A000E493F2A308B8000205A0D9F4DAF27547
:02008100A0FFDE
:1B06FD0020F71130F6138883A88220F509F6A8837583002280FEF280F5F022FC
:200089007800E84400600A790175A000E4F309D8FC7800E84400600C7900900001E4F0A375
:0400A900D8FCD9FAAC
:0D00540075810E1207F3E582600302005172
:1C07180020F71430F6148883A88220F507E6A88375830022E280F7E49322E022F0
:20073400C2D5E58330E70DD2D5E4C39582F582E49583F583E58124FEF8E630E70918E4C3ED
:1D07540096F6E40896F6860118860012077B30D50BE4C39582F582E49583F58322F0
:20077100E58124FEF88601188600E84960367A01E825E0F8E933400EF9E58298E5839940F9
:20079100030A80ECC3E913F9E813F8C3E58298F5F0E583994005F58385F082C3E913F9E828
:0507B10013F8DAE72255
:2007B600C2D5E58330E70DD2D5E4C39582F582E49583F583E58124FEF8E630E70AB2D5188A
:1D07D600E4C396F6E40896F918E6F81206D630D50BE4C39582F582E49583F5832299
:0407F30075820022E9
:00000001FF
