:040000000200543274
:03000B000200D719
:200010000000E2FBEAF2802C0000E0FBEAF08024E6B50202EBF62200E2B50202EBF22200D6
:20003000E0B50202EBF02230F6E0A88220F5D3EAC6F582228B822230F6E6A88220F5D980E6
:01005000CFE0
:0A00AD00E4F510F511F514020051FE
:0300510002013B6E
:2000B70075A15575A1AA43B94043B001E5B930E6FB53B0FE74F855B94403F5B975A1002277
:2000D700C0E0C0D075D008758C15758AA0AE10AF1174012EF510E43FF511D0D0D0E03253B3
:2000F70089FC438901758C15758AA0D2A9D28CD2AF22C3E510941FE5119400500BE51470AD
:200117002243B00175140122C3E5109433E5119400500BE514600C53B0FE75140022E4F5B8
:2001370010F511221200B71200F675A15575A1AA53B1FE75A1005396FE4397015392EF5373
:2001570093EF439010E59030E4067E017F0080047E007F008E128F13E512451360E712012A
:030177000980E21A
:06008300E478FFF6D8FD51
:200061007900E94400601B7A0090017E780175A000E493F2A308B8000205A0D9F4DAF275C6
:02008100A0FFDE
:200089007800E84400600A790175A000E4F309D8FC7800E84400600C7900900001E4F0A375
:0400A900D8FCD9FAAC
:0D00540075811412017AE5826003020051EB
:04017A007582002268
:00000001FF
