:040000000200543274
:03000B000200D11F
:200010000000E2FBEAF2802C0000E0FBEAF08024E6B50202EBF62200E2B50202EBF22200D6
:20003000E0B50202EBF02230F6E0A88220F5D3EAC6F582228B822230F6E6A88220F5D980E6
:01005000CFE0
:1200AD00E4F508F509F50CF50DF50EF50FF51002005100
:0300510002013970
:2000BF0075A15575A1AA74F855B94406F5B975A10022C0E0C007C006C0D075D000C28D7586
:2000DF008CB1758AE0AE08AF0974012EF508E43FF509050DE4B50D02050ED0D0D006D0079C
:2000FF00D0E0325389FC438901758CB1758AE0D2A9D28CD2AF2275113C7512008508828570
:20011F000983120319AE82AF83C3EE941EEF9400500443B0012253B0FE221200BF1201024B
:20013F0075A15575A1AA53B1FE75A1005396FE439701439210439310120198E590C4540197
:20015F00B401009200E433F50A750B00450B6005120115800353B0FEC37464950DE4950E7E
:19017F0050D9E4F50DF50E050FB50F020510850F828510831202E180C201
:2001980075A15575A1AA43C62075A10075C90075C8005396FB4397045396EF5397EFC2C766
:2001B800D2C575C264D2C4D2C122AF8210C10280FB8FC122AD82AE83AFF08D828E838FF01B
:2001D800120366FC60188C820DBD00010EC007C006C0051201C2D005D006D00780DC22AE5C
:2001F80082AF83C3EE9410EF942740267511107512278E828F83C007C0061202F0AC827534
:20021800F00AEC84ACF074302CF5821201C2D006D007C3EE94E8EF940340267511E87512E9
:20023800038E828F83C007C0061202F0AC8275F00AEC84ACF074302CF5821201C2D006D085
:2002580007C3EE9464EF940040287511647512008E828F83C007C0061202F075110A7512B0
:2002780000120319AC8274302CF5821201C2D006D007C3EE940AEF9400402875110A7512F0
:20029800008E828F83C007C0061202F075110A751200120319AC8274302CF5821201C2D034
:2002B80006D00775110A7512008E828F83120319AE8274302EF5820201C21201CC75820DC1
:1802D8001201C275820A0201C21201F775820D1201C275820A0201C2CA
:2002F0007A10E4FBFCE58225E0F582E58333F583EB33FBEC33FCEB9511F5F0EC9512400610
:09031000FCABF0438201DADD22AE
:06008300E478FFF6D8FD51
:200061007900E94400601B7A00900386780175A000E493F2A308B8000205A0D9F4DAF275BC
:02008100A0FFDE
:20031900E511451260467A01E51125E0F511E512334012F512E5829511E583951240030A69
:2003390080E6C3E51213F512E51113F511C3E5829511F5F0E58395124005F58385F082C320
:0D035900E51213F512E51113F511DAE1229A
:200089007800E84400600A790175A000E4F309D8FC7800E84400600C7900900001E4F0A375
:0400A900D8FCD9FAAC
:0D005400758120120382E5826003020051D5
:1C03660020F71430F6148883A88220F507E6A88375830022E280F7E49322E022A6
:04038200758200225E
:00000001FF
