:0400000002005C326C
:03000B000200F2FE
:030013000200E404
:200018000000E2FBEAF2802C0000E0FBEAF08024E6B50202EBF62200E2B50202EBF22200CE
:20003800E0B50202EBF02230F6E0A88220F5D3EAC6F582228B822230F6E6A88220F5D980DE
:01005800CFD8
:1700B500E4F508F509F50AF50BF50CF50DF50EF50FC200C201C20203
:0300CF00020059D3
:030059000201831E
:2000D20075A15575A1AA74F855B94406F5B975A10022C0E0E5B020E304D200D201D0E03276
:2000F200C0E0C007C006C0D075D000C28D758CB1758AE0AE08AF0974012EF508E43FF509DD
:20011200050CE4B50C02050D30011FAE0AAF0B74012EF50AE43FF50BC3E50A943CE50B9476
:20013200004007C201E4F50AF50BD0D0D006D007D0E0325389FC438901758CB1758AE0D289
:20015200A9D28CD2AAD2AF227432C0E0E4C0E08508828509831207FAAE82AF8315811581DC
:20017200C3EE9419EF9400500443B0202253B0DF221200D212014575A15575A1AA53B1FE96
:2001920075A1005396DF43972043960843970843B00812049B300017200114C200200204A2
:2001B200D2028002C20290088075F0801205FA30020512015A800353B0DFC37464950CE4DC
:1B01D200950D50D1E4F50CF50D050EB50E02050F850E82850F831206EA80BA14
:0F088000494E54312064657465637465642100CA
:2001ED00AF8274FE559A4FF59A439A0822E582FF7009C281C2805393FD8028BF0109C28180
:20020D00D2805393EF801CBF0209D281C2805393DF8010BF0309D281D2805397FB8004750C
:20022D0082FF2275820122C011858111AF82439A04E51124FDF8B60126EF7008C281C28022
:20024D00C283804EBF0208D281C280C2838043BF0308D281D280C28380387582FF8036E51B
:20026D001124FDF8B60326EF7008C281C280C2838020BF0108C281D280C2838015BF020897
:18028D00D281C280C283800A7582FF80087582FF8003758201D0112203
:0300CC00751000AC
:2002A500AF82C29474804FF58212072512072CD29422C011858111AF82C294747F5FF582B5
:2002C500120725E51124FDF88682120725D294D011227582001206F9E4C0E075826B12021B
:2002E500B715817582751202A58582102285108222C011858111C082C083C0F0E58124105E
:20030500F581C2947582BB120725E5112406F97C00BC0E005018EC29F8C004C001C00012F1
:20032500072CE582D000D001D004F60C80E3D29487048C037C00E904F886027F00EA42042C
:20034500EF4203A8110886820886830886F0EC120786A3EB120786E51124FBF8860508862E
:2003650006088607740229F88604E5112404F808A604187600740329F886027C00E51124B0
:2003850004F808E642048D828E838FF0EA120786A3EC120786E51124F8F8860508860608A1
:2003A5008607740429F88604E5112404F808A604187600740529F886027C00E5112404F87E
:2003C50008E642048D828E838FF0EA120786A3EC120786E51124F5F88605088606088607D3
:2003E500740829F88604E5112404F808A604187600740929F886027C00E5112404F808E6D5
:2004050042048D828E838FF0EA120786A3EC120786E51124F2F88605088606088607740A05
:2004250029F88604E5112404F808A604187600740B29F886027C00E5112404F808E64204C8
:200445008D828E838FF0EA120786A3EC120786E51124EFF88605088606088607740C29F8EB
:200465008604E5112404F808A604187600740D29F987027C00E5112404F808E642048D8296
:160485008E838FF0EA120786A3EC120786758201851181D0112208
:20049B0075A15575A1AA43C62075A10075C90075C8005396FB4397045396EF5397EFC2C760
:2004BB00D2C575C264D2C4D2C122AF8210C10280FB8FC122AD82AE83AFF08D828E838FF015
:2004DB001207A1FC60180DBD00010E8C82C007C006C0051204C5D005D006D00780DC22AE11
:2004FB0082AF83C3EE9410EF9427402CC007C0067410C0E07427C0E08E828F83120755AC9A
:20051B00821581158175F00AEC84ACF074302CF5821204C5D006D007C3EE94E8EF940340D5
:20053B002CC007C00674E8C0E07403C0E08E828F83120755AC821581158175F00AEC84AC5F
:20055B00F074302CF5821204C5D006D007C3EE9464EF94004032C007C0067464C0E0E4C07A
:20057B00E08E828F8312075515811581740AC0E0E4C0E01207FAAC821581158174302CF5F0
:20059B00821204C5D006D007C3EE940AEF94004032C007C006740AC0E0E4C0E08E828F83A1
:2005BB0012075515811581740AC0E0E4C0E01207FAAC821581158174302CF5821204C5D085
:2005DB0006D007740AC0E0E4C0E08E828F831207FAAE821581158174302EF5820204C512CA
:2005FB0004CF75820D1204C575820A0204C5C011E581F511240AF581AE82AF838E048F05F9
:20061B00ED30E71575822DC007C0061204C5D006D007C3E49EFEE49FFFAD110DE5112409BA
:20063B00F8E4F608F6E5112409F8E62DF9E5112409F806B600020806C0058E028F05C00513
:20065B00C002C001740AC0E0E4C0E08A828D831207BDAB8215811581D001D002D0057430F3
:20067B002BF7740AC0E0E4C0E08A828D8312083FAC82AD83158115818C068D078E048F0550
:20069B00C3E49C74808DF063F08095F0D0054095E5112409F886060886078E038F041EBE4D
:2006BB00FF011FEB4C6016EE2DF98782C007C006C0051204C5D005D006D00780DD75820D26
:1E06DB001204C575820A1204C5851181D011221204FA75820D1204C575820A0204C575
:2006F900AF8275FC00EF700575FA608006BF030375FA6853920F4393B05393BF75FB0B222E
:2007190043FC5043FA01E5F875F8FF228582F930FBFD2275F9FF30FBFD85F9822275FC8096
:1C07390075FA8153920F53930F228582F910FC0280FB2210FC0280FB85F9822253
:20075500E58124FEF8E6F918E6F87A10E4FBFCE58225E0F582E58333F583EB33FBEC33FCA0
:11077500EB98F5F0EC994006FCABF0438201DADF2208
:06008B00E478FFF6D8FD49
:200069007900E94400601B7A0090088F780175A000E493F2A308B8000205A0D9F4DAF275A6
:02008900A0FFD6
:1B07860020F71130F6138883A88220F509F6A8837583002280FEF280F5F02272
:200091007800E84400600A790175A000E4F309D8FC7800E84400600C7900900001E4F0A36D
:0400B100D8FCD9FAA4
:0D005C0075812012087CE5826003020059C6
:1C07A10020F71430F6148883A88220F507E6A88375830022E280F7E49322E02267
:2007BD00C2D5E58330E70DD2D5E4C39582F582E49583F583E58124FEF8E630E70918E4C364
:1D07DD0096F6E40896F6860118860012080430D50BE4C39582F582E49583F58322DD
:2007FA00E58124FEF88601188600E84960367A01E825E0F8E933400EF9E58298E583994070
:20081A00030A80ECC3E913F9E813F8C3E58298F5F0E583994005F58385F082C3E913F9E89E
:05083A0013F8DAE722CB
:20083F00C2D5E58330E70DD2D5E4C39582F582E49583F583E58124FEF8E630E70AB2D51800
:1D085F00E4C396F6E40896F918E6F812075F30D50BE4C39582F582E49583F5832285
:04087C00758200225F
:00000001FF
