:040000000200543274
:03000B0002042CC0
:200010000000E2FBEAF2802C0000E0FBEAF08024E6B50202EBF62200E2B50202EBF22200D6
:20003000E0B50202EBF02230F6E0A88220F5D3EAC6F582228B822230F6E6A88220F5D980E6
:01005000CFE0
:0F00AD00E4F508F509F50AF50BF50CF50DF50E60
:0300BF00020051EB
:030051000204EABC
:2000C200C0108581100581A810087600A81008B62800500DA810088607A81008EF04F6800B
:2000E200EB1581D010224390014390021200C25390FE1200C25390FD225390FE439002127F
:2001020000C24390010200C2AF827E00BE08005026EF30E70543900180035390FE43900280
:20012200C007C0061200C25390FD1200C2D006D007EF2FFF0E80D54390014390021200C2FE
:200142005390FD22AF82C0071200E875827812010A75820012010AD0078F8212010A020002
:20016200FBAF82C0071200E875827812010A75824012010AD0078F8212010A0200FBC010DE
:20018200858110AF82E51024FDF8860674B02EF582C007120146D0078F06740F5EF582C00F
:2001A20007120146D007EFC4540F2410F582120146D01022C010858110C082C083C0F012BD
:2001C20000E875827812010A75824012010A7C00E51024FDF8C3EC965022A81008EC26FA48
:2001E200E40836FB0886078A828B838FF0120B91F582C00412010AD0040C80D41200FB85E6
:200202001081D010227F00BF0800504B8F0674B02EF582C0071201467582001201467582A3
:20022200101201461200E875827812010A75824012010AD0077E00BE80005011758200C0CE
:2002420007C00612010AD006D0070E80EAC0071200FBD0070F80B0227582AE12014675828C
:20026200201201467582001201467582B01201467582C81201467582001201467582101232
:20028200014675824012014675828112014675827F1201467582A11201467582A6120146FE
:2002A2007582A812014675823F1201467582A41201467582D3120146758200120146758257
:2002C200D51201467582F01201467582D91201467582221201467582DA12014675821212CE
:2002E20001467582DB12014675822012014675828D1201467582141201467582AF120146DA
:20030200020207AF82BF30004005EF24C6500122EF24D0FFC0071200E875827812010A757B
:20032200824012010AD007EF75F005A424E0FE740C35F0FF7D00BD0500501EED2EF582E43F
:200342003FF583E493F582C007C006C00512010AD005D006D0070D80DD75820012010A0285
:2003620000FBC010E581F510240EF581AE82AF83EE4F700CE5102403F97D0177300203FF44
:20038200E5102409FC7D00EE4F6054ED2CF90DC004A81008A60608A607C005C001740AC007
:2003A200E0E4C0E0A810088682088683120C5AAB8215811581D00174302BF7740AC0E0E494
:2003C200C0E0A810088682088683120AD8AB82AC8315811581D0058B068C07D00480A8E54C
:2003E200102403FF8C067C008D03EB600EEC2FF90C1BEB2EF88602A70280EF8C05E5102438
:2004020003FF2DF876007E00C3EE9D5017EE2FF98782C007C006C005120305D005D006D004
:20042200070E80E4851081D01022C0E0C007C006C0D075D000C28D758CB1758AE0AE08AFE2
:200442000974012EF508E43FF509050AE4B50A02050BD0D0D006D007D0E0325389FC438939
:2004620001758CB1758AE0D2A9D28CD2AF2275A15575A1AA74F855B94406F5B975A1002297
:20048200D2842084FDC285859F8222AF82BF2E00500490000022EF24D2FF7E007D007C00D5
:2004A200C007C006C005C004900BB8E4F5F0120BEAAC82AD83AEF0FFE58124FCF581747521
:2004C200C0E0E4C0E0C0E0C0E08C828D838EF0EF120B24AC82AD83E58124FCF581742C2CC4
:2004E200F58274013DF5832212047012045D75A15575A1AA53B1FE75A1004392034393034A
:2005020043900143900275820012057075820212057D12081E12025AE4C0E07582001201F1
:200522008015817F00BF8000500D7582FFC007120163D0070F80EEC37464950AE4950B50F3
:20054200F6E4F50AF50B12048285820C12048D85820D85830E120A6DE4C0E0758200120131
:0E056200801581850D82850E8312036480C989
:200CE0003E5149453E00427F4000625149494622494949361814127F102F494949313E494B
:120D000049493201710905033649494936264949493E14
:20057000AF8274FE559A4FF59A439A0822E582FF7009C281C2805393FD8028BF0109C281F9
:20059000D2805393EF801CBF0209D281C2805393DF8010BF0309D281D2805397FB80047586
:2005B00082FF2275820122C010858110AF82439A04E51024FDF8B60126EF7008C281C2809F
:2005D000C283804EBF0208D281C280C2838043BF0308D281D280C28380387582FF8036E595
:2005F0001024FDF8B60326EF7008C281C280C2838020BF0108C281D280C2838015BF020812
:18061000D281C280C283800A7582FF80087582FF8003758201D010227D
:0300BC00750F00BD
:20062800AF82C29474804FF582120AA8120AAFD29422C010858110AF82C294747F5FF58224
:20064800120AA8E51024FDF88682120AA8D294D01022758200120A7CE4C0E075826B1206FF
:200668003A158175827512062885820F22850F8222C010858110C082C083C0F0E5812410D1
:20068800F581C2947582BB120AA8E5102406F97C00BC0E005018EC29F8C004C001C00012E6
:2006A8000AAFE582D000D001D004F60C80E3D29487048C037C00E904F886027F00EA420420
:2006C800EF4203A8100886820886830886F0EC120B09A3EB120B09E51024FBF8860508869C
:2006E80006088607740229F88604E5102404F808A604187600740329F886027C00E510242C
:2007080004F808E642048D828E838FF0EA120B09A3EC120B09E51024F8F88605088606080D
:200728008607740429F88604E5102404F808A604187600740529F886027C00E5102404F8F9
:2007480008E642048D828E838FF0EA120B09A3EC120B09E51024F5F886050886060886073F
:20076800740829F88604E5102404F808A604187600740929F886027C00E5102404F808E650
:2007880042048D828E838FF0EA120B09A3EC120B09E51024F2F88605088606088607740A72
:2007A80029F88604E5102404F808A604187600740B29F886027C00E5102404F808E6420444
:2007C8008D828E838FF0EA120B09A3EC120B09E51024EFF88605088606088607740C29F858
:2007E8008604E5102404F808A604187600740D29F987027C00E5102404F808E642048D8212
:160808008E838FF0EA120B09A3EC120B09758201851081D0102275
:20081E0075A15575A1AA43C62075A10075C90075C8005396FB4397045396EF5397EFC2C7D9
:20083E00D2C575C264D2C4D2C122AF8210C10280FB8FC122AD82AE83AFF08D828E838FF08E
:20085E00120B91FC60180DBD00010E8C82C007C006C005120848D005D006D00780DC22AE0F
:20087E0082AF83C3EE9410EF9427402CC007C0067410C0E07427C0E08E828F83120AD8AC8D
:20089E00821581158175F00AEC84ACF074302CF582120848D006D007C3EE94E8EF940340C8
:2008BE002CC007C00674E8C0E07403C0E08E828F83120AD8AC821581158175F00AEC84AC53
:2008DE00F074302CF582120848D006D007C3EE9464EF94004032C007C0067464C0E0E4C06D
:2008FE00E08E828F83120AD815811581740AC0E0E4C0E0120C5AAC821581158174302CF57F
:20091E0082120848D006D007C3EE940AEF94004032C007C006740AC0E0E4C0E08E828F8393
:20093E00120AD815811581740AC0E0E4C0E0120C5AAC821581158174302CF582120848D08C
:20095E0006D007740AC0E0E4C0E08E828F83120C5AAE821581158174302EF5820208481257
:20097E00085275820D12084875820A020848C010E581F510240AF581AE82AF838E048F05DF
:20099E00ED30E71575822DC007C006120848D006D007C3E49EFEE49FFFAD100DE5102409AF
:2009BE00F8E4F608F6E5102409F8E62DF9E5102409F806B600020806C0058E028F05C0058F
:2009DE00C002C001740AC0E0E4C0E08A828D83120BADAB8215811581D001D002D005743079
:2009FE002BF7740AC0E0E4C0E08A828D83120C9FAC82AD83158115818C068D078E048F0566
:200A1E00C3E49C74808DF063F08095F0D0054095E5102409F886060886078E038F041EBEC7
:200A3E00FF011FEB4C6016EE2DF98782C007C006C005120848D005D006D00780DD75820D18
:1E0A5E0012084875820A120848851081D0102212087D75820D12084875820A0208484D
:200A7C00AF8275FC00EF700575FA608006BF030375FA6853920F4393B05393BF75FB0B22A7
:200A9C0043FC5043FA01E5F875F8FF228582F930FBFD2275F9FF30FBFD85F9822275FC8010
:1C0ABC0075FA8153920F53930F228582F910FC0280FB2210FC0280FB85F98222CD
:200AD800E58124FEF8E6F918E6F87A10E4FBFCE58225E0F582E58333F583EB33FBEC33FC1A
:110AF800EB98F5F0EC994006FCABF0438201DADF2282
:06008300E478FFF6D8FD51
:200061007900E94400601B7A00900D12780175A000E493F2A308B8000205A0D9F4DAF27526
:02008100A0FFDE
:1B0B090020F71130F6138883A88220F509F6A8837583002280FEF280F5F022EB
:200089007800E84400600A790175A000E4F309D8FC7800E84400600C7900900001E4F0A375
:0400A900D8FCD9FAAC
:200B2400FBE58124FBF8E6F9087A20E4FCFDFEFFE5822582F582E58333F583E5F033F5F059
:200B4400EB33FB4017DAE98042E5822582F582E58333F583E5F033F5F0EB33FBEC33FCEDF6
:200B640033FDEE33FEEF33FFEC99ED96EE0896EF089618184013EC99FCED96FDEE0896FED2
:0D0B8400EF0896FF1818438201DABEEB223D
:0D005400758110120CDCE582600302005182
:1C0B910020F71430F6148883A88220F507E6A88375830022E280F7E49322E02273
:200BAD00C2D5E58330E70DD2D5E4C39582F582E49583F583E58124FEF8E630E70918E4C370
:1D0BCD0096F6E40896F68601188600120C6430D50BE4C39582F582E49583F5832285
:200BEA00AAF0FB74FB2581F8E58286F0A9F008A4FCADF0E58389F0A42DFDE435F0FEE58271
:200C0A0086F0A42DFDE5F03EFEE433FFEA89F0A42EFEE5F03FFFE58386F0A42EFEE5F03F57
:200C2A00FFE5820886F0A42EFEE5F03FFFEB89F0A42FFFE58386F0A42FFFEA1886F0A42FB2
:100C4A00FFE582080886F0A42F8EF08D838C82221D
:200C5A00E58124FEF88601188600E84960367A01E825E0F8E933400EF9E58298E58399400B
:200C7A00030A80ECC3E913F9E813F8C3E58298F5F0E583994005F58385F082C3E913F9E83A
:050C9A0013F8DAE72267
:200C9F00C2D5E58330E70DD2D5E4C39582F582E49583F583E58124FEF8E630E70AB2D5189C
:1D0CBF00E4C396F6E40896F918E6F8120AE230D50BE4C39582F582E49583F583229B
:040CDC0075820022FB
:00000001FF
