:040000000200543274
:03000B00020535B6
:200010000000E2FBEAF2802C0000E0FBEAF08024E6B50202EBF62200E2B50202EBF22200D6
:20003000E0B50202EBF02230F6E0A88220F5D3EAC6F582228B822230F6E6A88220F5D980E6
:01005000CFE0
:0F00AD00E4F508F509F50AF50BF50CF50DF50E60
:0300BF00020051EB
:030051000205EABB
:2000C2000000224390014390021200C25390FE1200C25390FD225390FE4390021200C243FB
:2000E20090010200C2AF827E00BE08005026EF30E70543900180035390FE439002C007C01F
:20010200061200C25390FD1200C2D006D007EF2FFF0E80D54390014390021200C2E5903000
:20012200E0047F0180027F008F825390FD22AF82C0071200C57582781200E7758200120005
:20014200E7D0078F821200E70200D8AF82C0071200C57582781200E77582401200E7D007BD
:200162008F821200E70200D8C010858110AF8274202FFFE51024FDF8860674B02EF582C09D
:2001820007120130D007740F5FF582C007120130D007EFC4540FFF74104FF582120130D090
:2001A2001022C010858110C082C083C0F01200C57582781200E77582401200E77C00E51010
:2001C20024FDF8C3EC965022A81008EC26FAE40836FB0886078A828B838FF0120D39F58267
:2001E200C0041200E7D0040C80D41200D8851081D010227F00BF0400504B8F0674B02EF551
:2002020082C0071201307582001201307582121201301200C57582781200E7758240120042
:20022200E7D0077E00BE40005011758200C007C0061200E7D006D0070E80EAC0071200D8CE
:20024200D0070F80B0227582AE1201307582D51201307582801201307582A81201307582DA
:200262001F1201307582D312013075820012013075824012013075828D1201307582141275
:2002820001307582201201307582021201307582A11201307582C81201307582DA120130A4
:2002A2007582121201307582811201307582CF1201307582D91201307582221201307582C6
:2002C200DB1201307582001201307582A41201307582A61201307582AF1201300201F5AF76
:2002E20082BF30004005EF24C6500122EF24D0FFC0071200C57582781200E77582401200C9
:20030200E7D007EF75F005A42488FE740E35F0FF7D00BD0500501EED2EF582E43FF583E412
:2003220093F582C007C006C0051200E7D005D006D0070D80DD7582001200E70200D8AE8280
:20034200AF83EE4F7004758206227D00EE4F60210D8E828F83C005740AC0E0E4C0E0120CAA
:2003620080AB82AC8315811581D0058B068C0780DBED75F006A4240DF58222C010E581F52E
:20038200102450F581AE82AF837D00EE4F700CE5102444F97C01773002043A8E048F02E507
:2003A20010244AFBE5102450F87600EC4A6062C005E5102450F8E62BF9E5102450F8068CD0
:2003C200058A07C007C005C003C001740AC0E0E4C0E08D828F83120E02AA8215811581D068
:2003E20001D003D005D00774302AF7C005C003740AC0E0E4C0E08D828F83120C80AE82AFEE
:200402008315811581D003D0058E048F02D005809AE5102444FF8B067B00E5102450F88622
:2004220002EA6012C005EB2FF90B1AEA2EF88605A705D00580EB8B04E5102444FF2CF87653
:2004420000E5102404FEFB7A00C3EA9C5059EA2FF9E724D075F005A4A810082488F6740E39
:2004620035F008F6E5102403F8A6057D00BD05005020E5102403F8E62EF9E5102403F806AE
:20048200A81008ED26F582E40836F583E493F70D80DBE5102403F8E604FDE5102403F8E6AB
:2004A2002BF876000A80A28E077C00BC06005009ED2FF90D77000C80F28E077C00BC050060
:2004C200500DED2FF90DEC900EBA93F70C80EE8E07ED04FCED2EF876007E00BE0500500DAA
:2004E200EC2FF90CEE900EBF93F70E80EEEC04FEEC2FF87600C007C0061200C5758278122D
:2005020000E77582401200E7D006D0077D00C3ED9E5017ED2FF98782C007C006C005120061
:20052200E7D005D006D0070D80E41200D8851081D01022C0E0C007C006C0D075D000C28D8C
:20054200758CB1758AE0AE08AF0974012EF508E43FF509AE0AAF0B74012EF50AE43FF50BA2
:20056200D0D0D006D007D0E0325389FC438901758CB1758AE0D2A9D28CD2AF2275A15575B8
:20058200A1AA74F855B94406F5B975A10022D2842084FDD2842084FDC285859F8222AF8236
:2005A2007E007D007C00C007C006C005C004901388E4F5F0120D92AC82AD83AEF0FFE581A6
:2005C20024FCF58174FFC0E0E4C0E0C0E0C0E08C828D838EF0EF120CCCAC82AD83E581244F
:2005E200FCF5818C828D8322C0108581100581058175A15575A1AA53B1FE75A10012057E7D
:2006020012056B1209C6758202120718758201120725A81008E4F608F6A8100886060886A3
:2006220007C3EE94E8EF94035015A810088606088607A8100874012EF6E43F08F680DA5391
:2006420092EF5393EF4392035393FC439001439002C3E508940FE509940040F5120248C3B6
:200662007464950AE4950B50F6E4F50AF50B12059085820C1205A085820D85830E120C1586
:200682007F00BF0400504B8F0674B02EF582C007120130758200120130758212120130127B
:2006A20000C57582781200E77582401200E7D0077E00BE40005011758200C007C006120091
:2006C200E7D006D0070E80EAC0071200D8D0070F80B0850D82850E83120340AF827E0074A3
:2006E20040C39FF582E49EF5837402C0E0E4C0E0120E47AE82158115817401C0E08E821251
:16070200016A1581850D82850E8312037D020661851081D01022A3
:200E88003E5149453E00427F4000625149494622494949361814127F102F494949313E49A1
:1C0EA80049493201710905033649494936264949493E7C041804781F2040201F8F
:20071800AF8274FE559A4FF59A439A0822E582FF7009C281C2805393FD8028BF0109C2814F
:20073800D2805393EF801CBF0209D281C2805393DF8010BF0309D281D2805397FB800475DC
:2007580082FF2275820122C010858110AF82439A04E51024FDF8B60126EF7008C281C280F5
:20077800C283804EBF0208D281C280C2838043BF0308D281D280C28380387582FF8036E5EB
:200798001024FDF8B60326EF7008C281C280C2838020BF0108C281D280C2838015BF020868
:1807B800D281C280C283800A7582FF80087582FF8003758201D01022D4
:0300BC00750F00BD
:2007D000AF82C29474804FF582120C50120C57D29422C010858110AF82C294747F5FF58227
:2007F000120C50E51024FDF88682120C50D294D01022758200120C24E4C0E075826B120757
:20081000E215817582751207D085820F22850F8222C010858110C082C083C0F0E5812410D6
:20083000F581C2947582BB120C50E5102406F97C00BC0E005018EC29F8C004C001C0001292
:200850000C57E582D000D001D004F60C80E3D29487048C037C00E904F886027F00EA4204CC
:20087000EF4203A8100886820886830886F0EC120CB1A3EB120CB1E51024FBF886050886A0
:2008900006088607740229F88604E5102404F808A604187600740329F886027C00E5102482
:2008B00004F808E642048D828E838FF0EA120CB1A3EC120CB1E51024F8F886050886060812
:2008D0008607740429F88604E5102404F808A604187600740529F886027C00E5102404F850
:2008F00008E642048D828E838FF0EA120CB1A3EC120CB1E51024F5F8860508860608860744
:20091000740829F88604E5102404F808A604187600740929F886027C00E5102404F808E6A6
:2009300042048D828E838FF0EA120CB1A3EC120CB1E51024F2F88605088606088607740A76
:2009500029F88604E5102404F808A604187600740B29F886027C00E5102404F808E642049A
:200970008D828E838FF0EA120CB1A3EC120CB1E51024EFF88605088606088607740C29F85C
:200990008604E5102404F808A604187600740D29F987027C00E5102404F808E642048D8268
:1609B0008E838FF0EA120CB1A3EC120CB1758201851081D010227A
:2009C60075A15575A1AA43C62075A10075C90075C8005396FB4397045396EF5397EFC2C730
:2009E600D2C575C264D2C4D2C122AF8210C10280FB8FC122AD82AE83AFF08D828E838FF0E5
:200A0600120D39FC60180DBD00010E8C82C007C006C0051209F0D005D006D00780DC22AE12
:200A260082AF83C3EE9410EF9427402CC007C0067410C0E07427C0E08E828F83120C80AC39
:200A4600821581158175F00AEC84ACF074302CF5821209F0D006D007C3EE94E8EF94034075
:200A66002CC007C00674E8C0E07403C0E08E828F83120C80AC821581158175F00AEC84ACFF
:200A8600F074302CF5821209F0D006D007C3EE9464EF94004032C007C0067464C0E0E4C01A
:200AA600E08E828F83120C8015811581740AC0E0E4C0E0120E02AC821581158174302CF581
:200AC600821209F0D006D007C3EE940AEF94004032C007C006740AC0E0E4C0E08E828F8341
:200AE600120C8015811581740AC0E0E4C0E0120E02AC821581158174302CF5821209F0D0E6
:200B060006D007740AC0E0E4C0E08E828F83120E02AE821581158174302EF5820209F0125A
:200B260009FA75820D1209F075820A0209F0C010E581F510240AF581AE82AF838E048F053A
:200B4600ED30E71575822DC007C0061209F0D006D007C3E49EFEE49FFFAD100DE51024095C
:200B6600F8E4F608F6E5102409F8E62DF9E5102409F806B600020806C0058E028F05C005E5
:200B8600C002C001740AC0E0E4C0E08A828D83120D55AB8215811581D001D002D005743025
:200BA6002BF7740AC0E0E4C0E08A828D83120E47AC82AD83158115818C068D078E048F0512
:200BC600C3E49C74808DF063F08095F0D0054095E5102409F886060886078E038F041EBE1E
:200BE600FF011FEB4C6016EE2DF98782C007C006C0051209F0D005D006D00780DD75820DC6
:1E0C06001209F075820A1209F0851081D01022120A2575820D1209F075820A0209F055
:200C2400AF8275FC00EF700575FA608006BF030375FA6853920F4393B05393BF75FB0B22FD
:200C440043FC5043FA01E5F875F8FF228582F930FBFD2275F9FF30FBFD85F9822275FC8066
:1C0C640075FA8153920F53930F228582F910FC0280FB2210FC0280FB85F9822223
:200C8000E58124FEF8E6F918E6F87A10E4FBFCE58225E0F582E58333F583EB33FBEC33FC70
:110CA000EB98F5F0EC994006FCABF0438201DADF22D8
:06008300E478FFF6D8FD51
:200061007900E94400601B7A00900EC4780175A000E493F2A308B8000205A0D9F4DAF27573
:02008100A0FFDE
:1B0CB10020F71130F6138883A88220F509F6A8837583002280FEF280F5F02242
:200089007800E84400600A790175A000E4F309D8FC7800E84400600C7900900001E4F0A375
:0400A900D8FCD9FAAC
:200CCC00FBE58124FBF8E6F9087A20E4FCFDFEFFE5822582F582E58333F583E5F033F5F0B0
:200CEC00EB33FB4017DAE98042E5822582F582E58333F583E5F033F5F0EB33FBEC33FCED4D
:200D0C0033FDEE33FEEF33FFEC99ED96EE0896EF089618184013EC99FCED96FDEE0896FE28
:0D0D2C00EF0896FF1818438201DABEEB2293
:0D005400758110120E84E5826003020051D8
:1C0D390020F71430F6148883A88220F507E6A88375830022E280F7E49322E022C9
:200D5500C2D5E58330E70DD2D5E4C39582F582E49583F583E58124FEF8E630E70918E4C3C6
:1D0D750096F6E40896F68601188600120E0C30D50BE4C39582F582E49583F5832231
:200D9200AAF0FB74FB2581F8E58286F0A9F008A4FCADF0E58389F0A42DFDE435F0FEE582C7
:200DB20086F0A42DFDE5F03EFEE433FFEA89F0A42EFEE5F03FFFE58386F0A42EFEE5F03FAE
:200DD200FFE5820886F0A42EFEE5F03FFFEB89F0A42FFFE58386F0A42FFFEA1886F0A42F09
:100DF200FFE582080886F0A42F8EF08D838C822274
:200E0200E58124FEF88601188600E84960367A01E825E0F8E933400EF9E58298E583994061
:200E2200030A80ECC3E913F9E813F8C3E58298F5F0E583994005F58385F082C3E913F9E890
:050E420013F8DAE722BD
:200E4700C2D5E58330E70DD2D5E4C39582F582E49583F583E58124FEF8E630E70AB2D518F2
:1D0E6700E4C396F6E40896F918E6F8120C8A30D50BE4C39582F582E49583F5832247
:040E84007582002251
:00000001FF
