:040000000200543274
:03000B000200D41C
:200010000000E2FBEAF2802C0000E0FBEAF08024E6B50202EBF62200E2B50202EBF22200D6
:20003000E0B50202EBF02230F6E0A88220F5D3EAC6F582228B822230F6E6A88220F5D980E6
:01005000CFE0
:0F00AD00E4F561F562F565F566F567F568F569E7
:0300BF00020051EB
:0300510002015158
:2000C20075A15575A1AA74F855B94406F5B975A10022C0E0C007C006C0D075D000C28D7583
:2000E2008CB1758AE0AE61AF6274012EF561E43FF5620566E4B566020567D0D0D006D0072A
:20010200D0E0325389FC438901758CB1758AE0D2A9D28CD2AF22C3E561943CE56294004055
:2001220005E4F561F562743CC0E0E4C0E0856182856283120A49AE82AF8315811581C3EEDD
:20014200941EEF9400500443B0012253B0FE22C009E581F509241AF5811200C2E5092419FB
:20016200F8E4F608F6E5092419F8C3E6945008E694C35019E5092419F88606088607E5091D
:200182002419F874012EF6E43F08F680D875A15575A1AA53B1FE75A1005396FE43970143CE
:2001A20093105392EFD2941201051205C3901B0075F0801207227582001208211203FF90CD
:2001C2001B0575F0801205F712041A7E008E83120812120118C3E5669432E567940040F20E
:2001E200E4F566F567E5092417FF7E007D40E5092415FCA80908A604087600087640E5094F
:200202002413FCE5092404F8A604087600087640E5092411FCE5092407F8A6040876000855
:200222007640E509240FFCE509240AF8A604087600087640E509240DFC7B007A40C007C018
:2002420006C005A80908E6C0E008E6C0E008E6C0E0E5092404F8E6C0E008E6C0E008E6C0A6
:20026200E0E5092407F8E6C0E008E6C0E008E6C0E0E509240AF8E6C0E008E6C0E008E6C013
:20028200E08C828B838AF012041EAF82E58124F1F581EF70030201D4E5092417F8E6C0E0B0
:2002A20008E6C0E0E5092415F8E6C0E008E6C0E0E5092413F8E6C0E008E6C0E0E509241127
:2002C200F8E6C0E008E6C0E0E509240FF8E6C0E008E6C0E0E509240DF8E6C0E008E6C0E0B8
:2002E200740FC0E0741BC0E07480C0E07421C0E07400C0E07440C0E0120998E58124EEF559
:130302008190002175F0401205F70201D4850981D0092222
:201B0000424F4F540057484F414D49203D200041583D25642041593D256420415A3D2564EF
:151B20002047583D25642047593D256420475A3D25640D0A0007
:20031500AF8274FE559A4FF59A439A0822E582FF7009C281C2805393FD8028BF0109C28156
:20033500D2805393EF801CBF0209D281C2805393DF8010BF0309D281D2805397FB800475E3
:2003550082FF2275820122C009858109AF82439A04E50924FDF8B60126EF7008C281C28011
:20037500C283804EBF0208D281C280C2838043BF0308D281D280C28380387582FF8036E5F2
:200395000924FDF8B60326EF7008C281C280C2838020BF0108C281D280C2838015BF020876
:1803B500D281C280C283800A7582FF80087582FF8003758201D00922E2
:0300BC00750800C4
:2003CD00AF82C29474804FF58212084D120854D29422C009858109AF82C294747F5FF5824A
:2003ED0012084DE50924FDF8868212084DD294D00922758200120821E4C0E075826B120385
:20040D00DF15817582751203CD8582082285088222C009858109C082C083C0F0E581241003
:20042D00F581C2947582BB12084DE5092406F97C00BC0E005018EC29F8C004C001C00012A7
:20044D000854E582D000D001D004F60C80E3D29487048C037C00E904F886027F00EA4204DA
:20046D00EF4203A8090886820886830886F0EC1208AEA3EB1208AEE50924FBF886050886C3
:20048D0006088607740229F88604E5092404F808A604187600740329F886027C00E5092497
:2004AD0004F808E642048D828E838FF0EA1208AEA3EC1208AEE50924F8F88605088606082E
:2004CD008607740429F88604E5092404F808A604187600740529F886027C00E5092404F865
:2004ED0008E642048D828E838FF0EA1208AEA3EC1208AEE50924F5F8860508860608860760
:20050D00740829F88604E5092404F808A604187600740929F886027C00E5092404F808E6BB
:20052D0042048D828E838FF0EA1208AEA3EC1208AEE50924F2F88605088606088607740A92
:20054D0029F88604E5092404F808A604187600740B29F886027C00E5092404F808E64204AF
:20056D008D828E838FF0EA1208AEA3EC1208AEE50924EFF88605088606088607740C29F878
:20058D008604E5092404F808A604187600740D29F987027C00E5092404F808E642048D827D
:1605AD008E838FF0EA1208AEA3EC1208AE758201850981D009229D
:2005C30075A15575A1AA43C62075A10075C90075C8005396FB4397045396EF5397EFC2C737
:2005E300D2C575C264D2C4D2C122AF8210C10280FB8FC122AD82AE83AFF08D828E838FF0EC
:200603001209F0FC60180DBD00010E8C82C007C006C0051205EDD005D006D00780DC22AE6D
:2006230082AF83C3EE9410EF9427402CC007C0067410C0E07427C0E08E828F8312087DAC47
:20064300821581158175F00AEC84ACF074302CF5821205EDD006D007C3EE94E8EF94034083
:200663002CC007C00674E8C0E07403C0E08E828F8312087DAC821581158175F00AEC84AC0D
:20068300F074302CF5821205EDD006D007C3EE9464EF94004032C007C0067464C0E0E4C028
:2006A300E08E828F8312087D15811581740AC0E0E4C0E0120A49AC821581158174302CF54C
:2006C300821205EDD006D007C3EE940AEF94004032C007C006740AC0E0E4C0E08E828F834F
:2006E30012087D15811581740AC0E0E4C0E0120A49AC821581158174302CF5821205EDD0B8
:2007030006D007740AC0E0E4C0E08E828F83120A49AE821581158174302EF5820205ED1225
:2007230005F775820D1205ED75820A0205EDC009E581F509240AF581AE82AF838E048F0564
:20074300ED30E71575822DC007C0061205EDD006D007C3E49EFEE49FFFAD090DE509240978
:20076300F8E4F608F6E5092409F8E62DF9E5092409F806B600020806C0058E028F05C005FA
:20078300C002C001740AC0E0E4C0E08A828D83120A0CAB8215811581D001D002D005743078
:2007A3002BF7740AC0E0E4C0E08A828D83120A8EAC82AD83158115818C068D078E048F05D6
:2007C300C3E49C74808DF063F08095F0D0054095E5092409F886060886078E038F041EBE2C
:2007E300FF011FEB4C6016EE2DF98782C007C006C0051205EDD005D006D00780DD75820DD4
:1E0803001205ED75820A1205ED850981D0092212062275820D1205ED75820A0205ED8D
:20082100AF8275FC00EF700575FA608006BF030375FA6853920F4393B05393BF75FB0B2204
:2008410043FC5043FA01E5F875F8FF228582F930FBFD2275F9FF30FBFD85F9822275FC806D
:1C08610075FA8153920F53930F228582F910FC0280FB2210FC0280FB85F982222A
:20087D00E58124FEF8E6F918E6F87A10E4FBFCE58225E0F582E58333F583EB33FBEC33FC77
:11089D00EB98F5F0EC994006FCABF0438201DADF22DF
:06008300E478FFF6D8FD51
:200061007900E94400601B7A00901B40780175A000E493F2A308B8000205A0D9F4DAF275EA
:02008100A0FFDE
:1B08AE0020F71130F6138883A88220F509F6A8837583002280FEF280F5F02249
:200089007800E84400600A790175A000E4F309D8FC7800E84400600C7900900001E4F0A375
:0400A900D8FCD9FAAC
:2008C900C009858109C082058105810581E50924FBF8A9090909E6F708E609F708E609F7E1
:2008E900A809080886820886830886F01209F0FAA31209F0FBA31209F0FF74012AFCE43B82
:20090900FD8F06A809080886820886830886F0EC1208AEA3ED1208AEA3EE1208AE8A828BE8
:20092900838FF0A80908E61208AE850981D00922C009858109C082C083C0F0AF090F7E00E9
:200949007D40E50924FAF8E6C0E0E50924FBF8E6C0E008E6C0E008E6C0E0C007C006C0054E
:200969009008C9120C0CAE82AF83E58124F9F581A8090886030886040886058B828C838D78
:20098900F0E41208AE8E828F83850981D00922C009E581F50924F8FFE50924FBFE7D007C3A
:2009A90040C007E50924F8F8E6C0E008E6C0E008E6C0E0C006C005C0049008C9120C0CAEFB
:2009C90082AF83E58124F9F581E50924FBF886030886040886058B828C838DF0E41208AE69
:0709E9008E828F83D00922EA
:0D005400758169121AE4E582600302005113
:1C09F00020F71430F6148883A88220F507E6A88375830022E280F7E49322E02216
:200A0C00C2D5E58330E70DD2D5E4C39582F582E49583F583E58124FEF8E630E70918E4C312
:1D0A2C0096F6E40896F68601188600120A5330D50BE4C39582F582E49583F583223A
:200A4900E58124FEF88601188600E84960367A01E825E0F8E933400EF9E58298E58399401E
:200A6900030A80ECC3E913F9E813F8C3E58298F5F0E583994005F58385F082C3E913F9E84D
:050A890013F8DAE7227A
:200A8E00C2D5E58330E70DD2D5E4C39582F582E49583F583E58124FEF8E630E70AB2D518AF
:1D0AAE00E4C396F6E40896F918E6F812088730D50BE4C39582F582E49583F583220B
:200ACB00C009858109AF8274302FFF24C6501074072FFFE50924FDF8E6600474202FFFE545
:200AEB000924F8F8E6C0E008E6C0E008E6C0E0120AFF800FE50924FBF8E6C0E008E6C0E069
:200B0B008F8222158115811581D00922C009858109E582FFC4540FFEC007E50924F8F8E6C8
:200B2B00C0E008E6C0E008E6C0E0E50924FBF8E6C0E008E6C0E0E50924FDF8E6C0E08E8238
:200B4B00120ACBE58124FAF581D00753070FE50924F8F8E6C0E008E6C0E008E6C0E0E509D7
:200B6B0024FBF8E6C0E008E6C0E0E50924FDF8E6C0E08F82120ACBE58124FAF581D00922C5
:200B8B00C0098581090581AF828F01870309870409870509870619191974042FF8C000A890
:200BAB0009087620D000C001E626FAEE2354014202A602EB2BFBEC33FCED33FDEE33FEC072
:200BCB0000E50924FDF8C3EA96D000D00140148607C000E50924FDF8EFC396FFD000A607B3
:200BEB00430301C000A8090816A80908E6D00070B5A70309A70409A70509A7061581D00948
:200C0B0022C009858109C082C083E5812422F581E509240FF8E4F608F6E509240EF8E50931
:200C2B002415F6E509240EF8E509240AF9E6F7E509240EF8E5092409F9740226F7E509249F
:200C4B000EF8E5092411F9E604F7E509240EF8E5092403F9E6F7E509241FC8E5092404C8AC
:200C6B002405F6E509240EF8E5092405F9E6F7E509240EF8E5092406F9E6F7E509240EF827
:200C8B00E5092407F9E6F7E509240EF8E5092408F9E6F7E50924F8F886060886050886049F
:200CAB008E828D838CF01209F0FFE50924F8F874012EF6E43D08F608A604EFFE7003021A9B
:200CCB00B2BE25028003021A7CC200C201C202C203C204C205C206C207E509241AF8760091
:200CEB00E509241BF8E4F608F6E509241DF876FF0876FFE50924F8F8E509240BF9E6F708D6
:200D0B00E609F708E609F7E509240BF886820886830886F01209F0FAA31818A68208A68317
:200D2B00E509240BF8E50924F8F9E6F708E609F708E609F7BA2536E50924FBF8E6C0E0082F
:200D4B00E6C0E008E6C0E0120D57800DA80908E6C0E008E6C0E08A8222158115811581E5CF
:200D6B0009240FF806B600020806020C9EBA30005003020E1DEA24C65003020E1DE50924EC
:200D8B001DF8B6FF5008B6FF4CC002C020E509241BF8E6C0E008E6C0E090000A121AC2AF13
:200DAB0082AE8315811581D020D0028A037D00EB2FFFED3EFEE509241BF8EF24D0F6EE341B
:200DCB00FF08F6E509241BF8E608466003020D12D201020D12C002C020E509241DF8E6C0CB
:200DEB00E008E6C0E090000A121AC2AE82AF8315811581D020D0028A047D00EC2EFEED3F53
:200E0B00FFE509241DF8EE24D0F6EF34FF08F6020D12BA2E1DE509241DF8B6FF0608B6FFE4
:200E2B00028003020D12E509241DF8E4F608F6020D12BA61004011EA2485400C5302DFE57D
:200E4B00092414F876018007E5092414F87600BA2002806EBA2B028064BA2D02805ABA4268
:200E6B00028064BA43028069BA44030213A5BA46030213CBBA4803020D12BA49030213A515
:200E8B00BA4A03020D12BA4C028041BA4F030213B0BA50030211B7BA5303020F40BA54033C
:200EAB00020D12BA55030213B9BA58030213C2BA5A03020D120213CFD200020D12D2020255
:200ECB000D12D203020D12D205020D12D206020D12300513E50924F7F8E614F9E50924F7BC
:200EEB00F8A60187068014E50924F7F8E624FEFDE50924F7F8A6058D018706C020E5092468
:200F0B00FBF8E6C0E008E6C0E008E6C0E0120F1D800DA80908E6C0E008E6C0E08E82221552
:200F2B008115811581D020E509240FF806B60002080602141CE509240EF88601E50924F74A
:200F4B00F8E624FDFEE50924F7F8A606A8068604088605088606A70409A70509A706191935
:200F6B008C828D838EF0C001C020121AE8C8E5092412C8A68208A683D020D001E509241D18
:200F8B00F8B6FF1808B6FF14E5092412F8C001E509241DF9E6F708E609F7D00130000302DA
:200FAB00105BE5092412F8C001E509241BF9C3E69708E60997D001400302105BE509241B3C
:200FCB00F8C001E5092412F9E6C397F608E60997F6D001E509240FF88604088603E509245F
:200FEB001BF886020886058A068D071ABAFF011DEE4F6048C005C004C003C002C001C0200F
:20100B00E50924FBF8E6C0E008E6C0E008E6C0E0121020800EA80908E6C0E008E6C0E0750C
:20102B00822022158115811581D020D001D002D003D004D0050CBC00AE0B80ABE509240F43
:20104B00F8A60408A603E509241BF8A60208A605E509241DF88606088607E509240FF8C091
:20106B0001E509240BF9E6F708E609F7D001870309870409870519198B828C838DF0120919
:20108B00F0FD7003021110C3E49E74808FF063F08095F050701EBEFF011FC007C006C001A9
:2010AB00C020E50924FBF8E6C0E008E6C0E008E6C0E01210C2800DA80908E6C0E008E6C040
:2010CB00E08D8222158115811581D020D001D006D007E509240BF8C001E509240BF9740163
:2010EB0026F7E4083609F7D001870309870409870519190BBB00010CA70309A70409A7050A
:20110B001919021079E509240BF8E509240FF9E6F708E609F720000302141CE5092412F89C
:20112B00E509241BF9C3E69708E60997400302141CE509241BF8E5092412F9E6C397F608BB
:20114B00E60997F6E509240BF88606088602E509241BF886040886058C038D071CBCFF019A
:20116B001DEB4F7003021408C006C005C004C002C020E50924FBF8E6C0E008E6C0E008E684
:20118B00C0E0121192800EA80908E6C0E008E6C0E075822022158115811581D020D002D007
:2011AB0004D005D0060EBE00AF0A80ACE509240AF88601E50924F7F8E624FDFFE50924F719
:2011CB00F8A6078F0086030886060886071818A70309A70609A7071919E5092409F886000C
:2011EB008607BF800040047E438014BF600040047E50800BBF400040047E4980027E58C0A1
:20120B0006C020E50924FBF8E6C0E008E6C0E008E6C0E0121223800DA80908E6C0E008E635
:20122B00C0E08E8222158115811581D020D006E509240FF8740126FBE40836FFC007C006EC
:20124B00C003C020E50924FBF8E6C0E008E6C0E008E6C0E0121264800EA80908E6C0E008DC
:20126B00E6C0E075823A22158115811581D020D003D006D0070BBB00010FC007C006C00332
:20128B00C020E50924FBF8E6C0E008E6C0E008E6C0E01212A2800EA80908E6C0E008E6C07B
:2012AB00E075823022158115811581D020D003D006D0070BBB00010FC007C006C003C020C2
:2012CB00E50924FBF8E6C0E008E6C0E008E6C0E01212E0800EA80908E6C0E008E6C0E07588
:2012EB00827822158115811581D020D003D006D0070BBB00010FBE4902804EBE500280490F
:20130B00E5092411F886008606C007C003C020E50924FBF8E6C0E008E6C0E008E6C0E0A8DC
:20132B000908E6C0E008E6C0E0E5092414F8E6C0E08E82120B17E58124FAF581D020D003D8
:20134B00D00774022BFBE43FFFE509240AF886018706C007C003C020E50924FBF8E6C0E0D0
:20136B0008E6C0E008E6C0E0A80908E6C0E008E6C0E0E5092414F8E6C0E08E82120B17E5AC
:20138B008124FAF581D020D003D007E509240FF874022BF6E43F08F68077D204E509241AC9
:2013AB00F8760A806CE509241AF876088063E509241AF8760A805AE509241AF87610805140
:2013CB00D207804DC020E50924FBF8E6C0E008E6C0E008E6C0E01213E6800DA80908E6C0DE
:2013EB00E008E6C0E08A8222158115811581D020E509240FF806B6000208068014E5092409
:20140B000FF8A60608A602E509241BF8A60408A6052007030214EDE5092403F88601E5092D
:20142B0024F7F8E624FCFFE50924F7F8A6078F008604088605088606088607181818A70413
:20144B0009A70509A70609A707191919E5092403F88601773509771B0977801919E50924F5
:20146B000FF88606088607C006C0078703098704098705191974012BFAE43CFE8D07A702D2
:20148B0009A70609A70719198B828C838DF01209F0FBFDD007D006EB7003020C9EC007C0C8
:2014AB0006C001E50924FBF8E6C0E008E6C0E008E6C0E01214C3800DA80908E6C0E008E610
:2014CB00C0E08D8222158115811581D001D006D0070EBE00010FE509240FF8A60608A6079A
:2014EB008085E509241AF8E67003020C9EE5092404F8860730055BE5092406F88601C00130
:20150B00E50924F7F9E714F8E50924F7F9A700D00186067D007C007B00A70609A70509A73F
:20152B000409A7031919193004030215EB87030987040987050987061919197C007D007E5A
:20154B0000A70309A70409A70509A7061919190215EB300635E5092415F9E50924F7F8E6F8
:20156B0024FCFEE50924F7F8A6068E008603088604088605088606181818A70309A7040916
:20158B00A70509A7061919198056E5092405F88601E50924F7F8E624FEFEE50924F7F8A679
:2015AB00068E00860508860618EE3395E0FCFBA70509A70609A70409A70319191920042070
:2015CB0087030987040987050987061919197D007E00A70309A70409A70509A7061919195D
:2015EB00300446E5092407F886018703098704098705098706191919EE30E72B87030987F0
:20160B0004098705098706191919C3E49BFBE49CFCE49DFDE49EFEA70309A70409A7050972
:20162B00A7061919198002C204D2058F017F007E00C001E5092408F9740427F8D001760049
:20164B00C000E5092408F88605D000C007C006C001C000C0208500F0E509241AF8E6C0E045
:20166B008D82120B8B1581D020D000D001D006D007200513E6C454F0FDE6C4540F4205E776
:20168B004205A7051980048605A7050FBF00010EB205C000E5092408F88605A8058602084A
:2016AB008603088604088605D000EA4B4C4D70818905E509241BF9E70947700AE509241B50
:2016CB00F97701097700300103021786300003021786E509240FF98704098703E509241B04
:2016EB00F9C000E5092412F8E7F609E708F6D000C0058F020A7D00E5092412F9C3EA97ED44
:20170B000997D0055057C007C006C005C004C003C000C020E50924FBF9E7C0E009E7C0E00C
:20172B0009E7C0E0121734800EA90909E7C0E009E7C0E075822022158115811581D020D096
:20174B0000D003D004D005D006D0070CBC00010BE5092412F917B7FF0209178093E5092450
:20176B000FF9A70409A703E5092412F9C000E509241BF8E7F609E708F6D000300456C0070A
:20178B00C006C005C000C020E50924FBF9E7C0E009E7C0E009E7C0E01217A8800EA909094C
:2017AB00E7C0E009E7C0E075822D22158115811581D020D000D005D006D007E509240FF9A3
:2017CB0007B700020907E509241BF917B7FF020917021894EF4E7003021894300255C007BF
:2017EB00C006C005C000C020E50924FBF9E7C0E009E7C0E009E7C0E0121808800EA909098B
:20180B00E7C0E009E7C0E075822B22158115811581D020D000D005D006D007E509240FF944
:20182B0007B700020907E509241BF917B7FF0209178056300353C007C006C005C000C0206A
:20184B00E50924FBF9E7C0E009E7C0E009E7C0E0121860800EA90909E7C0E009E7C0E07571
:20186B00822022158115811581D020D000D005D006D007E509240FF907B700020907E509BD
:20188B00241BF917B7FF02091730000302192CE509240FF98704098703E509241BF9C0007E
:2018AB00E5092412F8E7F609E708F6D000C005E5092412F98702098705E5092412F917B77B
:2018CB00FF020917C3EF9AEE9DD005507B3001047A3080027A20C007C006C005C004C00391
:2018EB00C000C020E50924FBF9E7C0E009E7C0E009E7C0E0121904800DA90909E7C0E00989
:20190B00E7C0E08A8222158115811581D020D000D003D004D005D006D0070CBC008F0B807A
:20192B008CE509241BF9C3EF97EE0997500FE509241BF9E7C39FF709E79EF78029E509240E
:20194B001BF9E4F709F7801EE509240FF9A70409A703E5092412F9C000E509241BF8E7F698
:20196B0009E708F6D0008D01C000E509240FF88604088605D000CECFCE8E028F031EBEFFE2
:20198B00011FEA4B6073B20520050809E7C4540FF680068703740F5BF68603C007C006C069
:2019AB0005C004C001C000C0208500F0E50924FBF8E6C0E008E6C0E008E6C0E0A8F08500B9
:2019CB00F0A80908E6C0E008E6C0E0A8F08500F0E5092414F8E6C0E08B82120ACBE5812410
:2019EB00FAF581D020D000D001D004D005D006D0070CBC00010D021984E509240FF8A6044D
:201A0B0008A605200003020C9E8C068D07E509241BF886040886058C028D031CBCFF011DBE
:201A2B00EA4B7003020C9EC007C006C005C004E50924FBF8E6C0E008E6C0E008E6C0E01278
:201A4B001A4F800EA80908E6C0E008E6C0E075822022158115811581D004D005D006D00766
:201A6B000EBE00010FE509240FF8A60608A60780A6E50924FBF8E6C0E008E6C0E008E6C018
:201A8B00E0121A91800DA80908E6C0E008E6C0E08E8222158115811581E509240FF806B67B
:171AAB0000020806020C9EE509240FF88682088683850981D009222C
:0B1B35003C4E4F20464C4F41543E00F8
:201AC20074FE2581F8E68582F0A4C0E08582F018E6A4F582D0E025F0C58386F0A42583F5FF
:021AE20083225D
:041AE40075820022E5
:181AE800AA82AB831209F06003A380F8C3E5829AF582E5839BF583222B
:00000001FF
