:040000000200543274
:03000B000200D21E
:200010000000E2FBEAF2802C0000E0FBEAF08024E6B50202EBF62200E2B50202EBF22200D6
:20003000E0B50202EBF02230F6E0A88220F5D3EAC6F582228B822230F6E6A88220F5D980E6
:01005000CFE0
:1000AD00E4F510F511F512F513F514D20002005117
:0300510002012485
:2000BD0075A15575A1AA43B98074F855B94406F5B975A10022C0E0C0D075D008C28D758C05
:2000DD00B1758AE0AE10AF1174012EF510E43FF511D0D0D0E03253C97F53C9EF5389FC43E1
:2000FD008901758CB1758AE0C28DD2A9D28CD2AF2253C6FB53FABF5392DF439320759E0010
:20011D00759C00759D04221200BD1200F312010EC2AFAE10AF11D2AFEEC39512FCEF951329
:20013D00FDC3EC9401ED940040E68E128F133000147404251450077514FFC2008019E51450
:1C015D0004F5148012E51424FC4007751400D2008005E51414F51485149C80B428
:06008300E478FFF6D8FD51
:200061007900E94400601B7A0090017D780175A000E493F2A308B8000205A0D9F4DAF275C7
:02008100A0FFDE
:200089007800E84400600A790175A000E4F309D8FC7800E84400600C7900900001E4F0A375
:0400A900D8FCD9FAAC
:0D005400758120120179E5826003020051E0
:040179007582002269
:00000001FF
