:040000000200543274
:03000B000200D51B
:200010000000E2FBEAF2802C0000E0FBEAF08024E6B50202EBF62200E2B50202EBF22200D6
:20003000E0B50202EBF02230F6E0A88220F5D3EAC6F582228B822230F6E6A88220F5D980E6
:01005000CFE0
:0D00AD00E4F510F511F512F513F514D2006D
:0300BD00020051ED
:0300510002015059
:2000C00075A15575A1AA43B98074F855B94406F5B975A10022C0E0C0D075D008C28D758C02
:2000E000B1758AE0AE10AF1174012EF510E43FF511D0D0D0E03253C97F53C9EF5389FC43DE
:200100008901758CB1758AE0C28DD2A9D28CD2AF227432C0E0E4C0E08510828511831207E6
:20012000AAAE82AF8315811581C3EE9419EF9400500443B0012253B0FE2253C6FB53FABFF9
:200140005392DF439320759E00759C00759D04221200C01200F612013A5396FE439701C2DE
:20016000AFAE10AF11D2AFC007C006120111D006D007EEC39512FCEF9513FDC3EC9401ED5A
:1D018000940040DB8E128F13E514240250057514008005E51404F51485149C80C272
:20019D00AF8274FE559A4FF59A439A0822E582FF7009C281C2805393FD8028BF0109C281D0
:2001BD00D2805393EF801CBF0209D281C2805393DF8010BF0309D281D2805397FB8004755D
:2001DD0082FF2275820122C016858116AF82439A04E51624FDF8B60126EF7008C281C28064
:2001FD00C283804EBF0208D281C280C2838043BF0308D281D280C28380387582FF8036E56C
:20021D001624FDF8B60326EF7008C281C280C2838020BF0108C281D280C2838015BF0208E2
:18023D00D281C280C283800A7582FF80087582FF8003758201D016224E
:0300BA00751500B9
:20025500AF82C29474804FF5821206D51206DCD29422C016858116AF82C294747F5FF5829D
:200275001206D5E51624FDF886821206D5D294D016227582001206A9E4C0E075826B120253
:200295006715817582751202558582152285158222C016858116C082C083C0F0E58124103A
:2002B500F581C2947582BB1206D5E5162406F97C00BC0E005018EC29F8C004C001C000128E
:2002D50006DCE582D000D001D004F60C80E3D29487048C037C00E904F886027F00EA4204CE
:2002F500EF4203A8160886820886830886F0EC120736A3EB120736E51624FBF88605088615
:2003150006088607740229F88604E5162404F808A604187600740329F886027C00E51624F6
:2003350004F808E642048D828E838FF0EA120736A3EC120736E51624F8F88605088606088C
:200355008607740429F88604E5162404F808A604187600740529F886027C00E5162404F8C4
:2003750008E642048D828E838FF0EA120736A3EC120736E51624F5F88605088606088607BE
:20039500740829F88604E5162404F808A604187600740929F886027C00E5162404F808E61B
:2003B50042048D828E838FF0EA120736A3EC120736E51624F2F88605088606088607740AF1
:2003D50029F88604E5162404F808A604187600740B29F886027C00E5162404F808E642040F
:2003F5008D828E838FF0EA120736A3EC120736E51624EFF88605088606088607740C29F8D7
:200415008604E5162404F808A604187600740D29F987027C00E5162404F808E642048D82DC
:160435008E838FF0EA120736A3EC120736758201851681D01622EE
:20044B0075A15575A1AA43C62075A10075C90075C8005396FB4397045396EF5397EFC2C7B0
:20046B00D2C575C264D2C4D2C122AF8210C10280FB8FC122AD82AE83AFF08D828E838FF065
:20048B00120751FC60180DBD00010E8C82C007C006C005120475D005D006D00780DC22AE01
:2004AB0082AF83C3EE9410EF9427402CC007C0067410C0E07427C0E08E828F83120705AC3A
:2004CB00821581158175F00AEC84ACF074302CF582120475D006D007C3EE94E8EF94034076
:2004EB002CC007C00674E8C0E07403C0E08E828F83120705AC821581158175F00AEC84AC00
:20050B00F074302CF582120475D006D007C3EE9464EF94004032C007C0067464C0E0E4C01A
:20052B00E08E828F8312070515811581740AC0E0E4C0E01207AAAC821581158174302CF5E0
:20054B0082120475D006D007C3EE940AEF94004032C007C006740AC0E0E4C0E08E828F8341
:20056B0012070515811581740AC0E0E4C0E01207AAAC821581158174302CF582120475D0C5
:20058B0006D007740AC0E0E4C0E08E828F831207AAAE821581158174302EF58202047512BA
:2005AB00047F75820D12047575820A020475C016E581F516240AF581AE82AF838E048F052F
:2005CB00ED30E71575822DC007C006120475D006D007C3E49EFEE49FFFAD160DE516240951
:2005EB00F8E4F608F6E5162409F8E62DF9E5162409F806B600020806C0058E028F05C0055A
:20060B00C002C001740AC0E0E4C0E08A828D8312076DAB8215811581D001D002D005743093
:20062B002BF7740AC0E0E4C0E08A828D831207EFAC82AD83158115818C068D078E048F05F1
:20064B00C3E49C74808DF063F08095F0D0054095E5162409F886060886078E038F041EBE98
:20066B00FF011FEB4C6016EE2DF98782C007C006C005120475D005D006D00780DD75820DC6
:1E068B0012047575820A120475851681D016221204AA75820D12047575820A0204754B
:2006A900AF8275FC00EF700575FA608006BF030375FA6853920F4393B05393BF75FB0B227E
:2006C90043FC5043FA01E5F875F8FF228582F930FBFD2275F9FF30FBFD85F9822275FC80E7
:1C06E90075FA8153920F53930F228582F910FC0280FB2210FC0280FB85F98222A4
:20070500E58124FEF8E6F918E6F87A10E4FBFCE58225E0F582E58333F583EB33FBEC33FCF0
:11072500EB98F5F0EC994006FCABF0438201DADF2258
:06008300E478FFF6D8FD51
:200061007900E94400601B7A00900830780175A000E493F2A308B8000205A0D9F4DAF2750D
:02008100A0FFDE
:1B07360020F71130F6138883A88220F509F6A8837583002280FEF280F5F022C2
:200089007800E84400600A790175A000E4F309D8FC7800E84400600C7900900001E4F0A375
:0400A900D8FCD9FAAC
:0D00540075812012082CE582600302005126
:1C07510020F71430F6148883A88220F507E6A88375830022E280F7E49322E022B7
:20076D00C2D5E58330E70DD2D5E4C39582F582E49583F583E58124FEF8E630E70918E4C3B4
:1D078D0096F6E40896F686011886001207B430D50BE4C39582F582E49583F583227E
:2007AA00E58124FEF88601188600E84960367A01E825E0F8E933400EF9E58298E5839940C0
:2007CA00030A80ECC3E913F9E813F8C3E58298F5F0E583994005F58385F082C3E913F9E8EF
:0507EA0013F8DAE7221C
:2007EF00C2D5E58330E70DD2D5E4C39582F582E49583F583E58124FEF8E630E70AB2D51851
:1D080F00E4C396F6E40896F918E6F812070F30D50BE4C39582F582E49583F5832225
:04082C0075820022AF
:00000001FF
