:040000000200543274
:03000B00020144AB
:200010000000E2FBEAF2802C0000E0FBEAF08024E6B50202EBF62200E2B50202EBF22200D6
:20003000E0B50202EBF02230F6E0A88220F5D3EAC6F582228B822230F6E6A88220F5D980E6
:01005000CFE0
:1100AD00E4F508F509F50AF50BF50CC200C201C2021A
:0300C100020051E9
:030051000201D0D9
:2000C40075A15575A1AA74F855B94406F5B975A10022C00E85810E058153927F53937F75A1
:2000E400C306E5C330E7FB7E007F00A80E087600A80E08B610005020E5C330E7FBACC48E9C
:20010400028F037D00EC2AFAED3BFB8A068B0775C306A80E080680D8EFC4CEC4540F6ECE37
:20012400540FCE6ECE8E0C9008D375F080120522AE0C7F008E828F8312073D1581D00E22E4
:20014400C0E0C007C006C0D075D000C28D758CB1758AE0C3E5089433E5099400500FAE08AB
:20016400AF0974012EF508E43FF5098005E4F508F50930011FAE0AAF0B74012EF50AE43F17
:20018400F50BC3E50A943CE50B94004007C201E4F50AF50BD0D0D006D007D0E0325389FC61
:2001A400438901758CB1758AE0D2A9D28CD2AF22C374199508E49509400443B02022C37442
:2001C400329508E49509400353B0DF221200C41204EE1201A175A15575A1AA53B1FE75A1B2
:2001E400005396DF4397201200D6E5C330E740AFC42001388F057E00AB0C7C00EDC39BFDF9
:20020400EE9CFEC3740A9D74808EF063F08095F0501AD201B2029008DE75F080C007120580
:1C02240022D0077E008F828E8312073D75C3063002051201B480B353B0DF80AE50
:1E08D300426173656C696E653A2000546F7563682120746F75636856616C75653D00E9
:20024000AF8274FE559A4FF59A439A0822E582FF7009C281C2805393FD8028BF0109C2812C
:20026000D2805393EF801CBF0209D281C2805393DF8010BF0309D281D2805397FB800475B9
:2002800082FF2275820122C00E85810EAF82439A04E50E24FDF8B60126EF7008C281C280D8
:2002A000C283804EBF0208D281C280C2838043BF0308D281D280C28380387582FF8036E5C8
:2002C0000E24FDF8B60326EF7008C281C280C2838020BF0108C281D280C2838015BF020847
:1802E000D281C280C283800A7582FF80087582FF8003758201D00E22B3
:0300BE00750D00BD
:2002F800AF82C29474804FF58212077812077FD29422C00E85810EAF82C294747F5FF582C2
:20031800120778E50E24FDF88682120778D294D00E2275820012074CE4C0E075826B1203D2
:200338000A15817582751202F885820D22850D8222C00E85810EC082C083C0F0E581241070
:20035800F581C2947582BB120778E50E2406F97C00BC0E005018EC29F8C004C001C000124E
:20037800077FE582D000D001D004F60C80E3D29487048C037C00E904F886027F00EA420486
:20039800EF4203A80E0886820886830886F0EC1207D9A3EB1207D9E50E24FBF8860508863B
:2003B80006088607740229F88604E50E2404F808A604187600740329F886027C00E50E2463
:2003D80004F808E642048D828E838FF0EA1207D9A3EC1207D9E50E24F8F8860508860608AB
:2003F8008607740429F88604E50E2404F808A604187600740529F886027C00E50E2404F831
:2004180008E642048D828E838FF0EA1207D9A3EC1207D9E50E24F5F88605088606088607DC
:20043800740829F88604E50E2404F808A604187600740929F886027C00E50E2404F808E687
:2004580042048D828E838FF0EA1207D9A3EC1207D9E50E24F2F88605088606088607740A0F
:2004780029F88604E50E2404F808A604187600740B29F886027C00E50E2404F808E642047B
:200498008D828E838FF0EA1207D9A3EC1207D9E50E24EFF88605088606088607740C29F8F5
:2004B8008604E50E2404F808A604187600740D29F987027C00E50E2404F808E642048D8249
:1604D8008E838FF0EA1207D9A3EC1207D9758201850E81D00E2215
:2004EE0075A15575A1AA43C62075A10075C90075C8005396FB4397045396EF5397EFC2C70D
:20050E00D2C575C264D2C4D2C122AF8210C10280FB8FC122AD82AE83AFF08D828E838FF0C1
:20052E001207F4FC60180DBD00010E8C82C007C006C005120518D005D006D00780DC22AE16
:20054E0082AF83C3EE9410EF9427402CC007C0067410C0E07427C0E08E828F831207A8ACF3
:20056E00821581158175F00AEC84ACF074302CF582120518D006D007C3EE94E8EF9403402E
:20058E002CC007C00674E8C0E07403C0E08E828F831207A8AC821581158175F00AEC84ACB9
:2005AE00F074302CF582120518D006D007C3EE9464EF94004032C007C0067464C0E0E4C0D3
:2005CE00E08E828F831207A815811581740AC0E0E4C0E012084DAC821581158174302CF5F6
:2005EE0082120518D006D007C3EE940AEF94004032C007C006740AC0E0E4C0E08E828F83FA
:20060E001207A815811581740AC0E0E4C0E012084DAC821581158174302CF582120518D036
:20062E0006D007740AC0E0E4C0E08E828F8312084DAE821581158174302EF58202051812CE
:20064E00052275820D12051875820A020518C00EE581F50E240AF581AE82AF838E048F05AF
:20066E00ED30E71575822DC007C006120518D006D007C3E49EFEE49FFFAD0E0DE50E240919
:20068E00F8E4F608F6E50E2409F8E62DF9E50E2409F806B600020806C0058E028F05C005C6
:2006AE00C002C001740AC0E0E4C0E08A828D83120810AB8215811581D001D002D00574304C
:2006CE002BF7740AC0E0E4C0E08A828D83120892AC82AD83158115818C068D078E048F05AA
:2006EE00C3E49C74808DF063F08095F0D0054095E50E2409F886060886078E038F041EBEFD
:20070E00FF011FEB4C6016EE2DF98782C007C006C005120518D005D006D00780DD75820D7E
:1E072E0012051875820A120518850E81D00E2212054D75820D12051875820A02051883
:20074C00AF8275FC00EF700575FA608006BF030375FA6853920F4393B05393BF75FB0B22DA
:20076C0043FC5043FA01E5F875F8FF228582F930FBFD2275F9FF30FBFD85F9822275FC8043
:1C078C0075FA8153920F53930F228582F910FC0280FB2210FC0280FB85F9822200
:2007A800E58124FEF8E6F918E6F87A10E4FBFCE58225E0F582E58333F583EB33FBEC33FC4D
:1107C800EB98F5F0EC994006FCABF0438201DADF22B5
:06008300E478FFF6D8FD51
:200061007900E94400601B7A009008F1780175A000E493F2A308B8000205A0D9F4DAF2754C
:02008100A0FFDE
:1B07D90020F71130F6138883A88220F509F6A8837583002280FEF280F5F0221F
:200089007800E84400600A790175A000E4F309D8FC7800E84400600C7900900001E4F0A375
:0400A900D8FCD9FAAC
:0D0054007581201208CFE582600302005183
:1C07F40020F71430F6148883A88220F507E6A88375830022E280F7E49322E02214
:20081000C2D5E58330E70DD2D5E4C39582F582E49583F583E58124FEF8E630E70918E4C310
:1D08300096F6E40896F6860118860012085730D50BE4C39582F582E49583F5832236
:20084D00E58124FEF88601188600E84960367A01E825E0F8E933400EF9E58298E58399401C
:20086D00030A80ECC3E913F9E813F8C3E58298F5F0E583994005F58385F082C3E913F9E84B
:05088D0013F8DAE72278
:20089200C2D5E58330E70DD2D5E4C39582F582E49583F583E58124FEF8E630E70AB2D518AD
:1D08B200E4C396F6E40896F918E6F81207B230D50BE4C39582F582E49583F58322DF
:0408CF00758200220C
:00000001FF
