:0400000002005C326C
:03000B00020104EB
:030013000200F3F5
:200018000000E2FBEAF2802C0000E0FBEAF08024E6B50202EBF62200E2B50202EBF22200CE
:20003800E0B50202EBF02230F6E0A88220F5D3EAC6F582228B822230F6E6A88220F5D980DE
:01005800CFD8
:2000B500E4F510F511F512F513751401F515F516F517F518F519F51AF51BF51EF51FC2005F
:0900D500C201C202C2030200597B
:0300590002019B06
:2000DE0075A15575A1AA43B98074F855B94406F5B975A10022C0E0E5B020E307200104D27B
:2000FE0000D201D0E032C0E0C0D075D008C28D758CB1758AE0AE10AF1174012EF510E43F87
:20011E00F5110516E4B51602051730011FAE12AF1374012EF512E43FF513C3E512943CE5BD
:20013E001394004007C201E4F512F513D0D0D0E03253C97F53C9EF5389FC438901758CB17E
:20015E00758AE0C28DD2A9D28CD2AF22D28AD2AA22AE82AF83EEC3951EFCEF951FFDC3ECCC
:20017E00941EED9400500443B00122C3EC943CED9400500453B0FE228E1E8F1F221200DEE1
:20019E0012016A12014F5396FE4397015396F743970843B00853B0FE200318C37432951099
:2001BE00E49511500E75A15575A1AA43B10175A100D203C3E5149404E5159400500375FF85
:2001DE0001C2AF85101C85111DD2AF300019300116C20020020FD202851C1A851D1BE4F502
:2001FE0014F5158002C202300230851C82851D8312016FE51CC3951AFEE51D951BFFC3EE7E
:20021E0094C8EF94004013851C1A851D1BAE14AF1574012EF514E43FF515C3E5149404E57E
:19023E0015940050030201B675A15575A1AA75E20075A100C2AF0080FD6C
:06008B00E478FFF6D8FD49
:200069007900E94400601B7A0090025B780175A000E493F2A308B8000205A0D9F4DAF275E0
:02008900A0FFD6
:200091007800E84400600A790175A000E4F309D8FC7800E84400600C7900900001E4F0A36D
:0400B100D8FCD9FAA4
:0D005C00758120120257E5826003020059F1
:04025700758200228A
:00000001FF
