:0400000002005C326C
:03000B00020100EF
:030013000200EFF9
:200018000000E2FBEAF2802C0000E0FBEAF08024E6B50202EBF62200E2B50202EBF22200CE
:20003800E0B50202EBF02230F6E0A88220F5D3EAC6F582228B822230F6E6A88220F5D980DE
:01005800CFD8
:2000B500E4F510F511F512F513751401F515F516F517F518F519F51CF51DC200C201C202FB
:0500D500C20302005906
:030059000201A4FD
:2000DA0075A15575A1AA43B98074F855B94406F5B975A10022C0E0E5B020E307200104D27F
:2000FA0000D201D0E032C0E0C0D075D008C28D758CB1758AE0AE10AF1174012EF510E43F8B
:20011A00F5110516E4B51602051730011FAE12AF1374012EF512E43FF513C3E512943CE5C1
:20013A001394004007C201E4F512F513D0D0D0E03253C97F53C9EF5389FC438901758CB182
:20015A00758AE0C28DD2A9D28CD2AF22D28AD2AA22AE82AF83EEC3951CFCEF951DFDC3ECD4
:20017A00941EED9400500443B00122C3EC943CED9400500453B0FE228E1C8F1DAE14AF1575
:20019A0074012EF514E43FF515221200DA12016612014B5396FE4397015396F743970843C0
:2001BA00B00853B0FE200318C374329510E49511500E75A15575A1AA43B10175A100D20330
:2001DA00C3E5149405E5159400500375FF01C2AF85101A85111BD2AF300013300110C200C2
:2001FA00200209D202E4F514F5158002C202300209851A82851B8312016BC3E5149405E572
:16021A0015940040A075A15575A1AA75E20075A100C2AF0080FDBF
:06008B00E478FFF6D8FD49
:200069007900E94400601B7A00900234780175A000E493F2A308B8000205A0D9F4DAF27507
:02008900A0FFD6
:200091007800E84400600A790175A000E4F309D8FC7800E84400600C7900900001E4F0A36D
:0400B100D8FCD9FAA4
:0D005C00758120120230E582600302005918
:0402300075820022B1
:00000001FF
